{
    "_format": "hh-sol-artifact-1",
    "contractName": "EventContract",
    "sourceName": "contracts/EventContract.sol",
    "abi": [
        {
            "inputs": [
                {
                    "internalType": "uint256",
                    "name": "_eventId",
                    "type": "uint256"
                },
                {
                    "internalType": "string",
                    "name": "_eventName",
                    "type": "string"
                },
                {
                    "internalType": "string",
                    "name": "_eventLocation",
                    "type": "string"
                },
                {
                    "internalType": "uint256",
                    "name": "_eventDate",
                    "type": "uint256"
                },
                {
                    "internalType": "uint256",
                    "name": "_ticketPriceUSD",
                    "type": "uint256"
                },
                {
                    "internalType": "uint256",
                    "name": "_ticketsAvailable",
                    "type": "uint256"
                },
                {
                    "internalType": "address payable",
                    "name": "_organizer",
                    "type": "address"
                },
                {
                    "internalType": "address",
                    "name": "_priceFeedAddress",
                    "type": "address"
                },
                {
                    "internalType": "address payable",
                    "name": "_platform",
                    "type": "address"
                }
            ],
            "stateMutability": "nonpayable",
            "type": "constructor"
        },
        {
            "inputs": [
                {
                    "internalType": "address",
                    "name": "sender",
                    "type": "address"
                },
                {
                    "internalType": "uint256",
                    "name": "tokenId",
                    "type": "uint256"
                },
                {
                    "internalType": "address",
                    "name": "owner",
                    "type": "address"
                }
            ],
            "name": "ERC721IncorrectOwner",
            "type": "error"
        },
        {
            "inputs": [
                {
                    "internalType": "address",
                    "name": "operator",
                    "type": "address"
                },
                {
                    "internalType": "uint256",
                    "name": "tokenId",
                    "type": "uint256"
                }
            ],
            "name": "ERC721InsufficientApproval",
            "type": "error"
        },
        {
            "inputs": [
                {
                    "internalType": "address",
                    "name": "approver",
                    "type": "address"
                }
            ],
            "name": "ERC721InvalidApprover",
            "type": "error"
        },
        {
            "inputs": [
                {
                    "internalType": "address",
                    "name": "operator",
                    "type": "address"
                }
            ],
            "name": "ERC721InvalidOperator",
            "type": "error"
        },
        {
            "inputs": [
                {
                    "internalType": "address",
                    "name": "owner",
                    "type": "address"
                }
            ],
            "name": "ERC721InvalidOwner",
            "type": "error"
        },
        {
            "inputs": [
                {
                    "internalType": "address",
                    "name": "receiver",
                    "type": "address"
                }
            ],
            "name": "ERC721InvalidReceiver",
            "type": "error"
        },
        {
            "inputs": [
                {
                    "internalType": "address",
                    "name": "sender",
                    "type": "address"
                }
            ],
            "name": "ERC721InvalidSender",
            "type": "error"
        },
        {
            "inputs": [
                {
                    "internalType": "uint256",
                    "name": "tokenId",
                    "type": "uint256"
                }
            ],
            "name": "ERC721NonexistentToken",
            "type": "error"
        },
        {
            "inputs": [
                {
                    "internalType": "address",
                    "name": "owner",
                    "type": "address"
                }
            ],
            "name": "OwnableInvalidOwner",
            "type": "error"
        },
        {
            "inputs": [
                {
                    "internalType": "address",
                    "name": "account",
                    "type": "address"
                }
            ],
            "name": "OwnableUnauthorizedAccount",
            "type": "error"
        },
        {
            "inputs": [],
            "name": "ReentrancyGuardReentrantCall",
            "type": "error"
        },
        {
            "anonymous": false,
            "inputs": [
                {
                    "indexed": true,
                    "internalType": "address",
                    "name": "owner",
                    "type": "address"
                },
                {
                    "indexed": true,
                    "internalType": "address",
                    "name": "approved",
                    "type": "address"
                },
                {
                    "indexed": true,
                    "internalType": "uint256",
                    "name": "tokenId",
                    "type": "uint256"
                }
            ],
            "name": "Approval",
            "type": "event"
        },
        {
            "anonymous": false,
            "inputs": [
                {
                    "indexed": true,
                    "internalType": "address",
                    "name": "owner",
                    "type": "address"
                },
                {
                    "indexed": true,
                    "internalType": "address",
                    "name": "operator",
                    "type": "address"
                },
                {
                    "indexed": false,
                    "internalType": "bool",
                    "name": "approved",
                    "type": "bool"
                }
            ],
            "name": "ApprovalForAll",
            "type": "event"
        },
        {
            "anonymous": false,
            "inputs": [],
            "name": "EventCancelled",
            "type": "event"
        },
        {
            "anonymous": false,
            "inputs": [
                {
                    "indexed": true,
                    "internalType": "address",
                    "name": "previousOwner",
                    "type": "address"
                },
                {
                    "indexed": true,
                    "internalType": "address",
                    "name": "newOwner",
                    "type": "address"
                }
            ],
            "name": "OwnershipTransferred",
            "type": "event"
        },
        {
            "anonymous": false,
            "inputs": [
                {
                    "indexed": true,
                    "internalType": "uint256",
                    "name": "ticketId",
                    "type": "uint256"
                }
            ],
            "name": "TicketInvalidated",
            "type": "event"
        },
        {
            "anonymous": false,
            "inputs": [
                {
                    "indexed": true,
                    "internalType": "uint256",
                    "name": "ticketId",
                    "type": "uint256"
                },
                {
                    "indexed": true,
                    "internalType": "address",
                    "name": "buyer",
                    "type": "address"
                }
            ],
            "name": "TicketPurchased",
            "type": "event"
        },
        {
            "anonymous": false,
            "inputs": [
                {
                    "indexed": true,
                    "internalType": "uint256",
                    "name": "ticketId",
                    "type": "uint256"
                },
                {
                    "indexed": true,
                    "internalType": "address",
                    "name": "owner",
                    "type": "address"
                },
                {
                    "indexed": false,
                    "internalType": "uint256",
                    "name": "refundAmount",
                    "type": "uint256"
                }
            ],
            "name": "TicketRefunded",
            "type": "event"
        },
        {
            "anonymous": false,
            "inputs": [
                {
                    "indexed": true,
                    "internalType": "uint256",
                    "name": "ticketId",
                    "type": "uint256"
                },
                {
                    "indexed": true,
                    "internalType": "address",
                    "name": "from",
                    "type": "address"
                },
                {
                    "indexed": true,
                    "internalType": "address",
                    "name": "to",
                    "type": "address"
                }
            ],
            "name": "TicketTransferred",
            "type": "event"
        },
        {
            "anonymous": false,
            "inputs": [
                {
                    "indexed": true,
                    "internalType": "address",
                    "name": "from",
                    "type": "address"
                },
                {
                    "indexed": true,
                    "internalType": "address",
                    "name": "to",
                    "type": "address"
                },
                {
                    "indexed": true,
                    "internalType": "uint256",
                    "name": "tokenId",
                    "type": "uint256"
                }
            ],
            "name": "Transfer",
            "type": "event"
        },
        {
            "inputs": [
                {
                    "internalType": "address",
                    "name": "to",
                    "type": "address"
                },
                {
                    "internalType": "uint256",
                    "name": "tokenId",
                    "type": "uint256"
                }
            ],
            "name": "approve",
            "outputs": [],
            "stateMutability": "nonpayable",
            "type": "function"
        },
        {
            "inputs": [
                {
                    "internalType": "address",
                    "name": "owner",
                    "type": "address"
                }
            ],
            "name": "balanceOf",
            "outputs": [
                {
                    "internalType": "uint256",
                    "name": "",
                    "type": "uint256"
                }
            ],
            "stateMutability": "view",
            "type": "function"
        },
        {
            "inputs": [
                {
                    "internalType": "uint256",
                    "name": "_quantity",
                    "type": "uint256"
                }
            ],
            "name": "buyTickets",
            "outputs": [],
            "stateMutability": "payable",
            "type": "function"
        },
        {
            "inputs": [],
            "name": "cancelEvent",
            "outputs": [],
            "stateMutability": "nonpayable",
            "type": "function"
        },
        {
            "inputs": [],
            "name": "eventDate",
            "outputs": [
                {
                    "internalType": "uint256",
                    "name": "",
                    "type": "uint256"
                }
            ],
            "stateMutability": "view",
            "type": "function"
        },
        {
            "inputs": [],
            "name": "eventId",
            "outputs": [
                {
                    "internalType": "uint256",
                    "name": "",
                    "type": "uint256"
                }
            ],
            "stateMutability": "view",
            "type": "function"
        },
        {
            "inputs": [],
            "name": "eventLocation",
            "outputs": [
                {
                    "internalType": "string",
                    "name": "",
                    "type": "string"
                }
            ],
            "stateMutability": "view",
            "type": "function"
        },
        {
            "inputs": [],
            "name": "eventName",
            "outputs": [
                {
                    "internalType": "string",
                    "name": "",
                    "type": "string"
                }
            ],
            "stateMutability": "view",
            "type": "function"
        },
        {
            "inputs": [
                {
                    "internalType": "uint256",
                    "name": "tokenId",
                    "type": "uint256"
                }
            ],
            "name": "getApproved",
            "outputs": [
                {
                    "internalType": "address",
                    "name": "",
                    "type": "address"
                }
            ],
            "stateMutability": "view",
            "type": "function"
        },
        {
            "inputs": [],
            "name": "getEventDetails",
            "outputs": [
                {
                    "internalType": "uint256",
                    "name": "",
                    "type": "uint256"
                },
                {
                    "internalType": "string",
                    "name": "",
                    "type": "string"
                },
                {
                    "internalType": "string",
                    "name": "",
                    "type": "string"
                },
                {
                    "internalType": "uint256",
                    "name": "",
                    "type": "uint256"
                },
                {
                    "internalType": "uint256",
                    "name": "",
                    "type": "uint256"
                },
                {
                    "internalType": "uint256",
                    "name": "",
                    "type": "uint256"
                },
                {
                    "internalType": "address",
                    "name": "",
                    "type": "address"
                },
                {
                    "internalType": "bool",
                    "name": "",
                    "type": "bool"
                }
            ],
            "stateMutability": "view",
            "type": "function"
        },
        {
            "inputs": [],
            "name": "getTicketPriceInWei",
            "outputs": [
                {
                    "internalType": "uint256",
                    "name": "",
                    "type": "uint256"
                }
            ],
            "stateMutability": "view",
            "type": "function"
        },
        {
            "inputs": [
                {
                    "internalType": "uint256",
                    "name": "_quantity",
                    "type": "uint256"
                }
            ],
            "name": "getTotalPriceWithFee",
            "outputs": [
                {
                    "internalType": "uint256",
                    "name": "",
                    "type": "uint256"
                }
            ],
            "stateMutability": "view",
            "type": "function"
        },
        {
            "inputs": [
                {
                    "internalType": "uint256",
                    "name": "_ticketId",
                    "type": "uint256"
                }
            ],
            "name": "invalidateTicket",
            "outputs": [],
            "stateMutability": "nonpayable",
            "type": "function"
        },
        {
            "inputs": [
                {
                    "internalType": "uint256[]",
                    "name": "_ticketIds",
                    "type": "uint256[]"
                }
            ],
            "name": "invalidateTickets",
            "outputs": [],
            "stateMutability": "nonpayable",
            "type": "function"
        },
        {
            "inputs": [
                {
                    "internalType": "address",
                    "name": "owner",
                    "type": "address"
                },
                {
                    "internalType": "address",
                    "name": "operator",
                    "type": "address"
                }
            ],
            "name": "isApprovedForAll",
            "outputs": [
                {
                    "internalType": "bool",
                    "name": "",
                    "type": "bool"
                }
            ],
            "stateMutability": "view",
            "type": "function"
        },
        {
            "inputs": [],
            "name": "isCancelled",
            "outputs": [
                {
                    "internalType": "bool",
                    "name": "",
                    "type": "bool"
                }
            ],
            "stateMutability": "view",
            "type": "function"
        },
        {
            "inputs": [],
            "name": "name",
            "outputs": [
                {
                    "internalType": "string",
                    "name": "",
                    "type": "string"
                }
            ],
            "stateMutability": "view",
            "type": "function"
        },
        {
            "inputs": [],
            "name": "nextTicketId",
            "outputs": [
                {
                    "internalType": "uint256",
                    "name": "",
                    "type": "uint256"
                }
            ],
            "stateMutability": "view",
            "type": "function"
        },
        {
            "inputs": [],
            "name": "organizer",
            "outputs": [
                {
                    "internalType": "address payable",
                    "name": "",
                    "type": "address"
                }
            ],
            "stateMutability": "view",
            "type": "function"
        },
        {
            "inputs": [],
            "name": "owner",
            "outputs": [
                {
                    "internalType": "address",
                    "name": "",
                    "type": "address"
                }
            ],
            "stateMutability": "view",
            "type": "function"
        },
        {
            "inputs": [
                {
                    "internalType": "uint256",
                    "name": "tokenId",
                    "type": "uint256"
                }
            ],
            "name": "ownerOf",
            "outputs": [
                {
                    "internalType": "address",
                    "name": "",
                    "type": "address"
                }
            ],
            "stateMutability": "view",
            "type": "function"
        },
        {
            "inputs": [
                {
                    "internalType": "address",
                    "name": "",
                    "type": "address"
                }
            ],
            "name": "pendingWithdrawals",
            "outputs": [
                {
                    "internalType": "uint256",
                    "name": "",
                    "type": "uint256"
                }
            ],
            "stateMutability": "view",
            "type": "function"
        },
        {
            "inputs": [],
            "name": "platform",
            "outputs": [
                {
                    "internalType": "address payable",
                    "name": "",
                    "type": "address"
                }
            ],
            "stateMutability": "view",
            "type": "function"
        },
        {
            "inputs": [],
            "name": "renounceOwnership",
            "outputs": [],
            "stateMutability": "nonpayable",
            "type": "function"
        },
        {
            "inputs": [
                {
                    "internalType": "address",
                    "name": "from",
                    "type": "address"
                },
                {
                    "internalType": "address",
                    "name": "to",
                    "type": "address"
                },
                {
                    "internalType": "uint256",
                    "name": "tokenId",
                    "type": "uint256"
                }
            ],
            "name": "safeTransferFrom",
            "outputs": [],
            "stateMutability": "nonpayable",
            "type": "function"
        },
        {
            "inputs": [
                {
                    "internalType": "address",
                    "name": "from",
                    "type": "address"
                },
                {
                    "internalType": "address",
                    "name": "to",
                    "type": "address"
                },
                {
                    "internalType": "uint256",
                    "name": "tokenId",
                    "type": "uint256"
                },
                {
                    "internalType": "bytes",
                    "name": "data",
                    "type": "bytes"
                }
            ],
            "name": "safeTransferFrom",
            "outputs": [],
            "stateMutability": "nonpayable",
            "type": "function"
        },
        {
            "inputs": [
                {
                    "internalType": "address",
                    "name": "operator",
                    "type": "address"
                },
                {
                    "internalType": "bool",
                    "name": "approved",
                    "type": "bool"
                }
            ],
            "name": "setApprovalForAll",
            "outputs": [],
            "stateMutability": "nonpayable",
            "type": "function"
        },
        {
            "inputs": [
                {
                    "internalType": "bytes4",
                    "name": "interfaceId",
                    "type": "bytes4"
                }
            ],
            "name": "supportsInterface",
            "outputs": [
                {
                    "internalType": "bool",
                    "name": "",
                    "type": "bool"
                }
            ],
            "stateMutability": "view",
            "type": "function"
        },
        {
            "inputs": [],
            "name": "symbol",
            "outputs": [
                {
                    "internalType": "string",
                    "name": "",
                    "type": "string"
                }
            ],
            "stateMutability": "view",
            "type": "function"
        },
        {
            "inputs": [],
            "name": "ticketPriceUSD",
            "outputs": [
                {
                    "internalType": "uint256",
                    "name": "",
                    "type": "uint256"
                }
            ],
            "stateMutability": "view",
            "type": "function"
        },
        {
            "inputs": [
                {
                    "internalType": "uint256",
                    "name": "",
                    "type": "uint256"
                }
            ],
            "name": "ticketPricesPaid",
            "outputs": [
                {
                    "internalType": "uint256",
                    "name": "",
                    "type": "uint256"
                }
            ],
            "stateMutability": "view",
            "type": "function"
        },
        {
            "inputs": [
                {
                    "internalType": "uint256",
                    "name": "",
                    "type": "uint256"
                }
            ],
            "name": "tickets",
            "outputs": [
                {
                    "internalType": "uint256",
                    "name": "ticketId",
                    "type": "uint256"
                },
                {
                    "internalType": "address",
                    "name": "owner",
                    "type": "address"
                },
                {
                    "internalType": "bool",
                    "name": "isValid",
                    "type": "bool"
                }
            ],
            "stateMutability": "view",
            "type": "function"
        },
        {
            "inputs": [],
            "name": "ticketsAvailable",
            "outputs": [
                {
                    "internalType": "uint256",
                    "name": "",
                    "type": "uint256"
                }
            ],
            "stateMutability": "view",
            "type": "function"
        },
        {
            "inputs": [
                {
                    "internalType": "uint256",
                    "name": "tokenId",
                    "type": "uint256"
                }
            ],
            "name": "tokenURI",
            "outputs": [
                {
                    "internalType": "string",
                    "name": "",
                    "type": "string"
                }
            ],
            "stateMutability": "view",
            "type": "function"
        },
        {
            "inputs": [
                {
                    "internalType": "address",
                    "name": "from",
                    "type": "address"
                },
                {
                    "internalType": "address",
                    "name": "to",
                    "type": "address"
                },
                {
                    "internalType": "uint256",
                    "name": "tokenId",
                    "type": "uint256"
                }
            ],
            "name": "transferFrom",
            "outputs": [],
            "stateMutability": "nonpayable",
            "type": "function"
        },
        {
            "inputs": [
                {
                    "internalType": "address",
                    "name": "newOwner",
                    "type": "address"
                }
            ],
            "name": "transferOwnership",
            "outputs": [],
            "stateMutability": "nonpayable",
            "type": "function"
        },
        {
            "inputs": [
                {
                    "internalType": "uint256",
                    "name": "_ticketId",
                    "type": "uint256"
                },
                {
                    "internalType": "address",
                    "name": "_to",
                    "type": "address"
                }
            ],
            "name": "transferTicket",
            "outputs": [],
            "stateMutability": "nonpayable",
            "type": "function"
        },
        {
            "inputs": [
                {
                    "internalType": "uint256[]",
                    "name": "_ticketIds",
                    "type": "uint256[]"
                },
                {
                    "internalType": "address",
                    "name": "_to",
                    "type": "address"
                }
            ],
            "name": "transferTickets",
            "outputs": [],
            "stateMutability": "nonpayable",
            "type": "function"
        },
        {
            "inputs": [],
            "name": "withdrawFunds",
            "outputs": [],
            "stateMutability": "nonpayable",
            "type": "function"
        }
    ],
    "bytecode": "0x608060405234801561001057600080fd5b50604051612ecd380380612ecd83398101604081905261002f916102d8565b6040805180820190915260038152621512d560ea1b60208201523390899060006100598382610429565b5060016100668282610429565b5050506001600160a01b03811661009857604051631e4fbdf760e01b8152600060048201526024015b60405180910390fd5b6100a18161013b565b506001600755600889905560096100b88982610429565b50600a6100c58882610429565b50600b869055600c859055600d849055600e80546001600160a01b038086166001600160a01b0319928316179092556001600f5560108054848416610100026001600160a81b0319909116179055601480549285169290911691909117905561012d8361018d565b5050505050505050506104e7565b600680546001600160a01b038381166001600160a01b0319831681179093556040519116919082907f8be0079c531659141344cd1fd0a4f28419497f9722a3daafe3b4186f6b6457e090600090a35050565b6101956101cb565b6001600160a01b0381166101bf57604051631e4fbdf760e01b81526000600482015260240161008f565b6101c88161013b565b50565b6006546001600160a01b031633146101f85760405163118cdaa760e01b815233600482015260240161008f565b565b634e487b7160e01b600052604160045260246000fd5b600082601f83011261022157600080fd5b81516001600160401b0381111561023a5761023a6101fa565b604051601f8201601f19908116603f011681016001600160401b0381118282101715610268576102686101fa565b60405281815283820160200185101561028057600080fd5b60005b8281101561029f57602081860181015183830182015201610283565b506000918101602001919091529392505050565b6001600160a01b03811681146101c857600080fd5b80516102d3816102b3565b919050565b60008060008060008060008060006101208a8c0312156102f757600080fd5b895160208b01519099506001600160401b0381111561031557600080fd5b6103218c828d01610210565b60408c015190995090506001600160401b0381111561033f57600080fd5b61034b8c828d01610210565b60608c015160808d015160a08e015160c08f0151939b50919950975095509050610374816102b3565b925061038260e08b016102c8565b91506103916101008b016102c8565b90509295985092959850929598565b600181811c908216806103b457607f821691505b6020821081036103d457634e487b7160e01b600052602260045260246000fd5b50919050565b601f82111561042457806000526020600020601f840160051c810160208510156104015750805b601f840160051c820191505b81811015610421576000815560010161040d565b50505b505050565b81516001600160401b03811115610442576104426101fa565b6104568161045084546103a0565b846103da565b6020601f82116001811461048a57600083156104725750848201515b600019600385901b1c1916600184901b178455610421565b600084815260208120601f198516915b828110156104ba578785015182556020948501946001909201910161049a565b50848210156104d85786840151600019600387901b60f8161c191681555b50505050600190811b01905550565b6129d7806104f66000396000f3fe6080604052600436106102305760003560e01c80636352211e1161012e578063a22cb465116100ab578063e2bb3ccf1161006f578063e2bb3ccf1461068b578063e985e9c5146106b4578063f2fde38b146106d4578063f3f43703146106f4578063fb6c95371461072157600080fd5b8063a22cb465146105de578063b88d4fde146105fe578063c7ddab361461061e578063c87b56dd1461063e578063cd86efc21461065e57600080fd5b8063720764b1116100f2578063720764b11461055c5780638043c9c01461057c5780638da5cb5b1461059157806395d89b41146105af57806395ee1221146105c457600080fd5b80636352211e146104c7578063679ebf1a146104e757806368456b1c1461050757806370a0823114610527578063715018a61461054757600080fd5b806324600fc3116101bc5780634bde38c8116101805780634bde38c8146103e85780634bfbe5df1461040d57806350b44712146104235780636031a52f1461049157806361203265146104a757600080fd5b806324600fc3146103765780632a6ca7551461038b5780632b74e984146103a05780632f366637146103b557806342842e0e146103c857600080fd5b8063095ea7b311610203578063095ea7b3146102e85780631030c51e1461030a57806318253234146103205780631d6283361461033657806323b872dd1461035657600080fd5b806301ffc9a71461023557806306fdde031461026a578063081812fc1461028c578063089cdd0c146102c4575b600080fd5b34801561024157600080fd5b50610255610250366004612313565b610736565b60405190151581526020015b60405180910390f35b34801561027657600080fd5b5061027f610788565b6040516102619190612380565b34801561029857600080fd5b506102ac6102a7366004612393565b61081a565b6040516001600160a01b039091168152602001610261565b3480156102d057600080fd5b506102da60085481565b604051908152602001610261565b3480156102f457600080fd5b506103086103033660046123c3565b610843565b005b34801561031657600080fd5b506102da600c5481565b34801561032c57600080fd5b506102da600d5481565b34801561034257600080fd5b506102da610351366004612393565b610852565b34801561036257600080fd5b506103086103713660046123ed565b610890565b34801561038257600080fd5b50610308610920565b34801561039757600080fd5b5061027f610ae3565b3480156103ac57600080fd5b506102da610b71565b6103086103c3366004612393565b610c28565b3480156103d457600080fd5b506103086103e33660046123ed565b611023565b3480156103f457600080fd5b506010546102ac9061010090046001600160a01b031681565b34801561041957600080fd5b506102da600b5481565b34801561042f57600080fd5b5061046c61043e366004612393565b601160205260009081526040902080546001909101546001600160a01b03811690600160a01b900460ff1683565b604080519384526001600160a01b039092166020840152151590820152606001610261565b34801561049d57600080fd5b506102da600f5481565b3480156104b357600080fd5b50600e546102ac906001600160a01b031681565b3480156104d357600080fd5b506102ac6104e2366004612393565b611043565b3480156104f357600080fd5b5061030861050236600461242a565b61104e565b34801561051357600080fd5b50610308610522366004612516565b6111a0565b34801561053357600080fd5b506102da61054236600461255b565b6112a1565b34801561055357600080fd5b506103086112e9565b34801561056857600080fd5b50610308610577366004612576565b6112fb565b34801561058857600080fd5b5061027f6113ce565b34801561059d57600080fd5b506006546001600160a01b03166102ac565b3480156105bb57600080fd5b5061027f6113db565b3480156105d057600080fd5b506010546102559060ff1681565b3480156105ea57600080fd5b506103086105f93660046125ab565b6113ea565b34801561060a57600080fd5b506103086106193660046125e7565b6113f5565b34801561062a57600080fd5b50610308610639366004612393565b61140d565b34801561064a57600080fd5b5061027f610659366004612393565b6114ee565b34801561066a57600080fd5b506102da610679366004612393565b60126020526000908152604090205481565b34801561069757600080fd5b506106a0611563565b6040516102619897969594939291906126ac565b3480156106c057600080fd5b506102556106cf366004612710565b6116ce565b3480156106e057600080fd5b506103086106ef36600461255b565b6116fc565b34801561070057600080fd5b506102da61070f36600461255b565b60136020526000908152604090205481565b34801561072d57600080fd5b5061030861173a565b60006001600160e01b031982166380ac58cd60e01b148061076757506001600160e01b03198216635b5e139f60e01b145b8061078257506301ffc9a760e01b6001600160e01b03198316145b92915050565b6060600080546107979061273a565b80601f01602080910402602001604051908101604052809291908181526020018280546107c39061273a565b80156108105780601f106107e557610100808354040283529160200191610810565b820191906000526020600020905b8154815290600101906020018083116107f357829003601f168201915b5050505050905090565b6000610825826117e5565b506000828152600460205260409020546001600160a01b0316610782565b61084e82823361181e565b5050565b60008061085d610b71565b9050600061086b848361278a565b905060006108788261182b565b9050600061088682846127a1565b9695505050505050565b6001600160a01b0382166108bf57604051633250574960e11b8152600060048201526024015b60405180910390fd5b60006108cc838333611844565b9050836001600160a01b0316816001600160a01b03161461091a576040516364283d7b60e01b81526001600160a01b03808616600483015260248201849052821660448201526064016108b6565b50505050565b61092861193d565b61093061196a565b60105460ff161561099c5760405162461bcd60e51b815260206004820152603060248201527f43616e6e6f742077697468647261772066756e6473206966207468652065766560448201526f373a1034b99031b0b731b2b63632b21760811b60648201526084016108b6565b600b544211610a025760405162461bcd60e51b815260206004820152602c60248201527f43616e6e6f742077697468647261772066756e6473206265666f72652074686560448201526b1032bb32b73a103230ba329760a11b60648201526084016108b6565b4780610a485760405162461bcd60e51b8152602060048201526015602482015274273790333ab73239903a37903bb4ba34323930bb9760591b60448201526064016108b6565b604051600090339083908381818185875af1925050503d8060008114610a8a576040519150601f19603f3d011682016040523d82523d6000602084013e610a8f565b606091505b5050905080610ad55760405162461bcd60e51b81526020600482015260126024820152712bb4ba34323930bbb0b6103330b4b632b21760711b60448201526064016108b6565b5050610ae16001600755565b565b600a8054610af09061273a565b80601f0160208091040260200160405190810160405280929190818152602001828054610b1c9061273a565b8015610b695780601f10610b3e57610100808354040283529160200191610b69565b820191906000526020600020905b815481529060010190602001808311610b4c57829003601f168201915b505050505081565b600080610b7c611994565b905060008111610bce5760405162461bcd60e51b815260206004820152601960248201527f50726574756c20455448206e7520657374652076616c69642e0000000000000060448201526064016108b6565b600081600c546a52b7d2dcc80cd2e4000000610bea919061278a565b610bf491906127b4565b90506107826040518060400160405280601081526020016f507269636520696e205765693a20257360801b81525082611a5e565b60105460ff1615610c4b5760405162461bcd60e51b81526004016108b6906127d6565b60008111610c9b5760405162461bcd60e51b815260206004820152601d60248201527f4d75737420627579206174206c65617374206f6e65207469636b65742e00000060448201526064016108b6565b80600d541015610ced5760405162461bcd60e51b815260206004820152601d60248201527f4e6f7420656e6f756768207469636b65747320617661696c61626c652e00000060448201526064016108b6565b600b544210610d505760405162461bcd60e51b815260206004820152602960248201527f43616e6e6f74207075726368617365207469636b65747320616674657220657660448201526832b73a103230ba329760b91b60648201526084016108b6565b6000610d5a610b71565b90506000610d68838361278a565b90506000610d758261182b565b90506000610d8382846127a1565b905080341015610de55760405162461bcd60e51b815260206004820152602760248201527f496e73756666696369656e742066756e647320746f207075726368617365207460448201526634b1b5b2ba399760c91b60648201526084016108b6565b84600d6000828254610df79190612803565b909155505060105460405160009161010090046001600160a01b03169084908381818185875af1925050503d8060008114610e4e576040519150601f19603f3d011682016040523d82523d6000602084013e610e53565b606091505b5050905080610ea45760405162461bcd60e51b815260206004820152601c60248201527f5365727669636520666565207472616e73666572206661696c65642e0000000060448201526064016108b6565b60005b86811015610f6b57600f54610ebc3382611aa3565b60408051606081018252828152336020808301828152600184860181815260008881526011855287812096518755925195909101805491511515600160a01b026001600160a81b03199092166001600160a01b03969096169590951717909355601290528282208a9055915183917f785f2865353ae960010300f584fc6c577b757a853af69a99c769df3c8232d3de91a3600f8054906000610f5d83612816565b909155505050600101610ea7565b506000610f788334612803565b9050801561101a57604051600090339083908381818185875af1925050503d8060008114610fc2576040519150601f19603f3d011682016040523d82523d6000602084013e610fc7565b606091505b50509050806110185760405162461bcd60e51b815260206004820181905260248201527f526566756e64206f6620657863657373207061796d656e74206661696c65642e60448201526064016108b6565b505b50505050505050565b61103e838383604051806020016040528060008152506113f5565b505050565b6000610782826117e5565b60105460ff16156110715760405162461bcd60e51b81526004016108b6906127d6565b3361107b83611043565b6001600160a01b0316146110d15760405162461bcd60e51b815260206004820152601b60248201527f596f7520646f206e6f74206f776e2074686973207469636b65742e000000000060448201526064016108b6565b600b5442106111385760405162461bcd60e51b815260206004820152602d60248201527f43616e6e6f74207472616e73666572207469636b65747320616674657220746860448201526c329032bb32b73a103230ba329760991b60648201526084016108b6565b611143338284611abd565b60008281526011602052604080822060010180546001600160a01b0319166001600160a01b03851690811790915590519091339185917fd15524263ae66f75c1e604c47db6085085110f23ef7322b355179ac5e3b0783a91a45050565b60105460ff16156111c35760405162461bcd60e51b81526004016108b6906127d6565b60005b825181101561103e5760008382815181106111e3576111e361282f565b60200260200101519050336001600160a01b031661120082611043565b6001600160a01b031614801561122e5750600081815260116020526040902060010154600160a01b900460ff165b156112985761123e338483611abd565b60008181526011602052604080822060010180546001600160a01b0319166001600160a01b03871690811790915590519091339184917fd15524263ae66f75c1e604c47db6085085110f23ef7322b355179ac5e3b0783a91a45b506001016111c6565b60006001600160a01b0382166112cd576040516322718ad960e21b8152600060048201526024016108b6565b506001600160a01b031660009081526003602052604090205490565b6112f161193d565b610ae16000611b6d565b600e546001600160a01b031633146113255760405162461bcd60e51b81526004016108b690612845565b60005b815181101561084e5760008282815181106113455761134561282f565b602002602001015190506011600082815260200190815260200160002060010160149054906101000a900460ff16156113c55761138181611bbf565b600081815260116020526040808220600101805460ff60a01b191690555182917f3d2e2c688a4e959f9f49fbb4703914231831fde152a68a8a1218418833249d7c91a25b50600101611328565b60098054610af09061273a565b6060600180546107979061273a565b61084e338383611bfa565b611400848484610890565b61091a3385858585611c99565b600e546001600160a01b031633146114375760405162461bcd60e51b81526004016108b690612845565b600081815260116020526040902060010154600160a01b900460ff1661149f5760405162461bcd60e51b815260206004820152601a60248201527f5469636b657420697320616c726561647920696e76616c69642e00000000000060448201526064016108b6565b6114a881611bbf565b600081815260116020526040808220600101805460ff60a01b191690555182917f3d2e2c688a4e959f9f49fbb4703914231831fde152a68a8a1218418833249d7c91a250565b60606114f9826117e5565b50600061151160408051602081019091526000815290565b90506000815111611531576040518060200160405280600081525061155c565b8061153b84611dc4565b60405160200161154c929190612894565b6040516020818303038152906040525b9392505050565b600060608060008060008060006008546009600a600b54600c54600d546115926006546001600160a01b031690565b601054865460ff9091169087906115a89061273a565b80601f01602080910402602001604051908101604052809291908181526020018280546115d49061273a565b80156116215780601f106115f657610100808354040283529160200191611621565b820191906000526020600020905b81548152906001019060200180831161160457829003601f168201915b505050505096508580546116349061273a565b80601f01602080910402602001604051908101604052809291908181526020018280546116609061273a565b80156116ad5780601f10611682576101008083540402835291602001916116ad565b820191906000526020600020905b81548152906001019060200180831161169057829003601f168201915b50505050509550975097509750975097509750975097509091929394959697565b6001600160a01b03918216600090815260056020908152604080832093909416825291909152205460ff1690565b61170461193d565b6001600160a01b03811661172e57604051631e4fbdf760e01b8152600060048201526024016108b6565b61173781611b6d565b50565b61174261193d565b61174a61196a565b60105460ff161561179d5760405162461bcd60e51b815260206004820152601b60248201527f4576656e7420697320616c72656164792063616e63656c6c65642e000000000060448201526064016108b6565b6010805460ff191660011790556117b2611e57565b6040517fc423524f667a9459893f10159c8a95981a43fb77edd414f6325d8439604ad41890600090a1610ae16001600755565b6000818152600260205260408120546001600160a01b03168061078257604051637e27328960e01b8152600481018490526024016108b6565b61103e8383836001611fae565b6000606461183a83600261278a565b61078291906127b4565b6000828152600260205260408120546001600160a01b0390811690831615611871576118718184866120b4565b6001600160a01b038116156118af5761188e600085600080611fae565b6001600160a01b038116600090815260036020526040902080546000190190555b6001600160a01b038516156118de576001600160a01b0385166000908152600360205260409020805460010190555b60008481526002602052604080822080546001600160a01b0319166001600160a01b0389811691821790925591518793918516917fddf252ad1be2c89b69c2b068fc378daa952ba7f163c4a11628f55a4df523b3ef91a4949350505050565b6006546001600160a01b03163314610ae15760405163118cdaa760e01b81523360048201526024016108b6565b60026007540361198d57604051633ee5aeb560e01b815260040160405180910390fd5b6002600755565b600080601460009054906101000a90046001600160a01b03166001600160a01b031663feaf968c6040518163ffffffff1660e01b815260040160a060405180830381865afa1580156119ea573d6000803e3d6000fd5b505050506040513d601f19601f82011682018060405250810190611a0e91906128dd565b50505091505060008113611a595760405162461bcd60e51b815260206004820152601260248201527124b73b30b634b21022aa2410383934b1b29760711b60448201526064016108b6565b919050565b61084e8282604051602401611a7492919061292f565b60408051601f198184030181529190526020810180516001600160e01b0316632d839cb360e21b179052612118565b61084e828260405180602001604052806000815250612121565b6001600160a01b038216611ae757604051633250574960e11b8152600060048201526024016108b6565b6000611af583836000611844565b90506001600160a01b038116611b2157604051637e27328960e01b8152600481018390526024016108b6565b836001600160a01b0316816001600160a01b03161461091a576040516364283d7b60e01b81526001600160a01b03808616600483015260248201849052821660448201526064016108b6565b600680546001600160a01b038381166001600160a01b0319831681179093556040519116919082907f8be0079c531659141344cd1fd0a4f28419497f9722a3daafe3b4186f6b6457e090600090a35050565b6000611bce6000836000611844565b90506001600160a01b03811661084e57604051637e27328960e01b8152600481018390526024016108b6565b6001600160a01b038216611c2c57604051630b61174360e31b81526001600160a01b03831660048201526024016108b6565b6001600160a01b03838116600081815260056020908152604080832094871680845294825291829020805460ff191686151590811790915591519182527f17307eab39ab6107e8899845ad3d59bd9653f200f220920489ca2b5937696c31910160405180910390a3505050565b6001600160a01b0383163b15611dbd57604051630a85bd0160e11b81526001600160a01b0384169063150b7a0290611cdb908890889087908790600401612951565b6020604051808303816000875af1925050508015611d16575060408051601f3d908101601f19168201909252611d1391810190612984565b60015b611d7f573d808015611d44576040519150601f19603f3d011682016040523d82523d6000602084013e611d49565b606091505b508051600003611d7757604051633250574960e11b81526001600160a01b03851660048201526024016108b6565b805181602001fd5b6001600160e01b03198116630a85bd0160e11b14611dbb57604051633250574960e11b81526001600160a01b03851660048201526024016108b6565b505b5050505050565b60606000611dd183612139565b600101905060008167ffffffffffffffff811115611df157611df1612456565b6040519080825280601f01601f191660200182016040528015611e1b576020820181803683370190505b5090508181016020015b600019016f181899199a1a9b1b9c1cb0b131b232b360811b600a86061a8153600a8504945084611e2557509392505050565b60015b600f5481101561173757600081815260116020526040902060010154600160a01b900460ff1615611fa657600081815260116020818152604080842060010180546012845291909420549290915260ff60a01b1981169092556001600160a01b0390911690611ec883611bbf565b8015611fa3576000826001600160a01b03168260405160006040518083038185875af1925050503d8060008114611f1b576040519150601f19603f3d011682016040523d82523d6000602084013e611f20565b606091505b505090508015611f7357826001600160a01b0316847f8c8fd3da31954f4657d981e2a89ea3421ef5d7bfa0998012eaff5f24a61a867a84604051611f6691815260200190565b60405180910390a3611fa1565b6001600160a01b03831660009081526013602052604081208054849290611f9b9084906127a1565b90915550505b505b50505b600101611e5a565b8080611fc257506001600160a01b03821615155b15612084576000611fd2846117e5565b90506001600160a01b03831615801590611ffe5750826001600160a01b0316816001600160a01b031614155b8015612011575061200f81846116ce565b155b1561203a5760405163a9fbf51f60e01b81526001600160a01b03841660048201526024016108b6565b81156120825783856001600160a01b0316826001600160a01b03167f8c5be1e5ebec7d5bd14f71427d1e84f3dd0314c0f7b2291e5b200ac8c7c3b92560405160405180910390a45b505b5050600090815260046020526040902080546001600160a01b0319166001600160a01b0392909216919091179055565b6120bf838383612211565b61103e576001600160a01b0383166120ed57604051637e27328960e01b8152600481018290526024016108b6565b60405163177e802f60e01b81526001600160a01b0383166004820152602481018290526044016108b6565b61173781612277565b61212b8383612298565b61103e336000858585611c99565b60008072184f03e93ff9f4daa797ed6e38ed64bf6a1f0160401b83106121785772184f03e93ff9f4daa797ed6e38ed64bf6a1f0160401b830492506040015b6d04ee2d6d415b85acef810000000083106121a4576d04ee2d6d415b85acef8100000000830492506020015b662386f26fc1000083106121c257662386f26fc10000830492506010015b6305f5e10083106121da576305f5e100830492506008015b61271083106121ee57612710830492506004015b60648310612200576064830492506002015b600a83106107825760010192915050565b60006001600160a01b0383161580159061226f5750826001600160a01b0316846001600160a01b0316148061224b575061224b84846116ce565b8061226f57506000828152600460205260409020546001600160a01b038481169116145b949350505050565b60006a636f6e736f6c652e6c6f679050600080835160208501845afa505050565b6001600160a01b0382166122c257604051633250574960e11b8152600060048201526024016108b6565b60006122d083836000611844565b90506001600160a01b0381161561103e576040516339e3563760e11b8152600060048201526024016108b6565b6001600160e01b03198116811461173757600080fd5b60006020828403121561232557600080fd5b813561155c816122fd565b60005b8381101561234b578181015183820152602001612333565b50506000910152565b6000815180845261236c816020860160208601612330565b601f01601f19169290920160200192915050565b60208152600061155c6020830184612354565b6000602082840312156123a557600080fd5b5035919050565b80356001600160a01b0381168114611a5957600080fd5b600080604083850312156123d657600080fd5b6123df836123ac565b946020939093013593505050565b60008060006060848603121561240257600080fd5b61240b846123ac565b9250612419602085016123ac565b929592945050506040919091013590565b6000806040838503121561243d57600080fd5b8235915061244d602084016123ac565b90509250929050565b634e487b7160e01b600052604160045260246000fd5b604051601f8201601f1916810167ffffffffffffffff8111828210171561249557612495612456565b604052919050565b600082601f8301126124ae57600080fd5b813567ffffffffffffffff8111156124c8576124c8612456565b8060051b6124d86020820161246c565b918252602081850181019290810190868411156124f457600080fd5b6020860192505b838310156108865782358252602092830192909101906124fb565b6000806040838503121561252957600080fd5b823567ffffffffffffffff81111561254057600080fd5b61254c8582860161249d565b92505061244d602084016123ac565b60006020828403121561256d57600080fd5b61155c826123ac565b60006020828403121561258857600080fd5b813567ffffffffffffffff81111561259f57600080fd5b61226f8482850161249d565b600080604083850312156125be57600080fd5b6125c7836123ac565b9150602083013580151581146125dc57600080fd5b809150509250929050565b600080600080608085870312156125fd57600080fd5b612606856123ac565b9350612614602086016123ac565b925060408501359150606085013567ffffffffffffffff81111561263757600080fd5b8501601f8101871361264857600080fd5b803567ffffffffffffffff81111561266257612662612456565b612675601f8201601f191660200161246c565b81815288602083850101111561268a57600080fd5b8160208401602083013760006020838301015280935050505092959194509250565b888152610100602082015260006126c761010083018a612354565b82810360408401526126d9818a612354565b60608401989098525050608081019490945260a08401929092526001600160a01b031660c0830152151560e0909101529392505050565b6000806040838503121561272357600080fd5b61272c836123ac565b915061244d602084016123ac565b600181811c9082168061274e57607f821691505b60208210810361276e57634e487b7160e01b600052602260045260246000fd5b50919050565b634e487b7160e01b600052601160045260246000fd5b808202811582820484141761078257610782612774565b8082018082111561078257610782612774565b6000826127d157634e487b7160e01b600052601260045260246000fd5b500490565b60208082526013908201527222bb32b73a1034b99031b0b731b2b63632b21760691b604082015260600190565b8181038181111561078257610782612774565b60006001820161282857612828612774565b5060010190565b634e487b7160e01b600052603260045260246000fd5b6020808252602f908201527f446f6172206f7267616e697a61746f72756c20706f617465206170656c61206160408201526e31b2b0b9ba3090333ab731ba34b29760891b606082015260800190565b600083516128a6818460208801612330565b8351908301906128ba818360208801612330565b01949350505050565b805169ffffffffffffffffffff81168114611a5957600080fd5b600080600080600060a086880312156128f557600080fd5b6128fe866128c3565b60208701516040880151606089015192975090955093509150612923608087016128c3565b90509295509295909350565b6040815260006129426040830185612354565b90508260208301529392505050565b6001600160a01b038581168252841660208201526040810183905260806060820181905260009061088690830184612354565b60006020828403121561299657600080fd5b815161155c816122fd56fea2646970667358221220ce13d2ea496ebc111cd386058974ba7f86f783b1fa151337368e69522455814464736f6c634300081b0033",
    "linkReferences": {},
    "deployedLinkReferences": {}
}