{
  "_format": "hh-sol-artifact-1",
  "contractName": "EventContract",
  "sourceName": "contracts/EventContract.sol",
  "abi": [
    {
      "inputs": [
        {
          "internalType": "uint256",
          "name": "_eventId",
          "type": "uint256"
        },
        {
          "internalType": "string",
          "name": "_eventName",
          "type": "string"
        },
        {
          "internalType": "string",
          "name": "_eventLocation",
          "type": "string"
        },
        {
          "internalType": "uint256",
          "name": "_eventDate",
          "type": "uint256"
        },
        {
          "internalType": "uint256",
          "name": "_ticketPriceUSD",
          "type": "uint256"
        },
        {
          "internalType": "uint256",
          "name": "_ticketsAvailable",
          "type": "uint256"
        },
        {
          "internalType": "address payable",
          "name": "_organizer",
          "type": "address"
        },
        {
          "internalType": "address",
          "name": "_priceFeedAddress",
          "type": "address"
        },
        {
          "internalType": "address payable",
          "name": "_platform",
          "type": "address"
        }
      ],
      "stateMutability": "nonpayable",
      "type": "constructor"
    },
    {
      "inputs": [
        {
          "internalType": "address",
          "name": "sender",
          "type": "address"
        },
        {
          "internalType": "uint256",
          "name": "tokenId",
          "type": "uint256"
        },
        {
          "internalType": "address",
          "name": "owner",
          "type": "address"
        }
      ],
      "name": "ERC721IncorrectOwner",
      "type": "error"
    },
    {
      "inputs": [
        {
          "internalType": "address",
          "name": "operator",
          "type": "address"
        },
        {
          "internalType": "uint256",
          "name": "tokenId",
          "type": "uint256"
        }
      ],
      "name": "ERC721InsufficientApproval",
      "type": "error"
    },
    {
      "inputs": [
        {
          "internalType": "address",
          "name": "approver",
          "type": "address"
        }
      ],
      "name": "ERC721InvalidApprover",
      "type": "error"
    },
    {
      "inputs": [
        {
          "internalType": "address",
          "name": "operator",
          "type": "address"
        }
      ],
      "name": "ERC721InvalidOperator",
      "type": "error"
    },
    {
      "inputs": [
        {
          "internalType": "address",
          "name": "owner",
          "type": "address"
        }
      ],
      "name": "ERC721InvalidOwner",
      "type": "error"
    },
    {
      "inputs": [
        {
          "internalType": "address",
          "name": "receiver",
          "type": "address"
        }
      ],
      "name": "ERC721InvalidReceiver",
      "type": "error"
    },
    {
      "inputs": [
        {
          "internalType": "address",
          "name": "sender",
          "type": "address"
        }
      ],
      "name": "ERC721InvalidSender",
      "type": "error"
    },
    {
      "inputs": [
        {
          "internalType": "uint256",
          "name": "tokenId",
          "type": "uint256"
        }
      ],
      "name": "ERC721NonexistentToken",
      "type": "error"
    },
    {
      "inputs": [
        {
          "internalType": "address",
          "name": "owner",
          "type": "address"
        }
      ],
      "name": "OwnableInvalidOwner",
      "type": "error"
    },
    {
      "inputs": [
        {
          "internalType": "address",
          "name": "account",
          "type": "address"
        }
      ],
      "name": "OwnableUnauthorizedAccount",
      "type": "error"
    },
    {
      "inputs": [],
      "name": "ReentrancyGuardReentrantCall",
      "type": "error"
    },
    {
      "anonymous": false,
      "inputs": [
        {
          "indexed": true,
          "internalType": "address",
          "name": "owner",
          "type": "address"
        },
        {
          "indexed": true,
          "internalType": "address",
          "name": "approved",
          "type": "address"
        },
        {
          "indexed": true,
          "internalType": "uint256",
          "name": "tokenId",
          "type": "uint256"
        }
      ],
      "name": "Approval",
      "type": "event"
    },
    {
      "anonymous": false,
      "inputs": [
        {
          "indexed": true,
          "internalType": "address",
          "name": "owner",
          "type": "address"
        },
        {
          "indexed": true,
          "internalType": "address",
          "name": "operator",
          "type": "address"
        },
        {
          "indexed": false,
          "internalType": "bool",
          "name": "approved",
          "type": "bool"
        }
      ],
      "name": "ApprovalForAll",
      "type": "event"
    },
    {
      "anonymous": false,
      "inputs": [],
      "name": "EventCancelled",
      "type": "event"
    },
    {
      "anonymous": false,
      "inputs": [
        {
          "indexed": true,
          "internalType": "address",
          "name": "previousOwner",
          "type": "address"
        },
        {
          "indexed": true,
          "internalType": "address",
          "name": "newOwner",
          "type": "address"
        }
      ],
      "name": "OwnershipTransferred",
      "type": "event"
    },
    {
      "anonymous": false,
      "inputs": [
        {
          "indexed": true,
          "internalType": "uint256",
          "name": "ticketId",
          "type": "uint256"
        }
      ],
      "name": "TicketInvalidated",
      "type": "event"
    },
    {
      "anonymous": false,
      "inputs": [
        {
          "indexed": true,
          "internalType": "uint256",
          "name": "ticketId",
          "type": "uint256"
        },
        {
          "indexed": true,
          "internalType": "address",
          "name": "buyer",
          "type": "address"
        }
      ],
      "name": "TicketPurchased",
      "type": "event"
    },
    {
      "anonymous": false,
      "inputs": [
        {
          "indexed": true,
          "internalType": "uint256",
          "name": "ticketId",
          "type": "uint256"
        },
        {
          "indexed": true,
          "internalType": "address",
          "name": "owner",
          "type": "address"
        },
        {
          "indexed": false,
          "internalType": "uint256",
          "name": "refundAmount",
          "type": "uint256"
        }
      ],
      "name": "TicketRefunded",
      "type": "event"
    },
    {
      "anonymous": false,
      "inputs": [
        {
          "indexed": true,
          "internalType": "uint256",
          "name": "ticketId",
          "type": "uint256"
        },
        {
          "indexed": true,
          "internalType": "address",
          "name": "from",
          "type": "address"
        },
        {
          "indexed": true,
          "internalType": "address",
          "name": "to",
          "type": "address"
        }
      ],
      "name": "TicketTransferred",
      "type": "event"
    },
    {
      "anonymous": false,
      "inputs": [
        {
          "indexed": true,
          "internalType": "address",
          "name": "from",
          "type": "address"
        },
        {
          "indexed": true,
          "internalType": "address",
          "name": "to",
          "type": "address"
        },
        {
          "indexed": true,
          "internalType": "uint256",
          "name": "tokenId",
          "type": "uint256"
        }
      ],
      "name": "Transfer",
      "type": "event"
    },
    {
      "inputs": [
        {
          "internalType": "address",
          "name": "to",
          "type": "address"
        },
        {
          "internalType": "uint256",
          "name": "tokenId",
          "type": "uint256"
        }
      ],
      "name": "approve",
      "outputs": [],
      "stateMutability": "nonpayable",
      "type": "function"
    },
    {
      "inputs": [
        {
          "internalType": "address",
          "name": "owner",
          "type": "address"
        }
      ],
      "name": "balanceOf",
      "outputs": [
        {
          "internalType": "uint256",
          "name": "",
          "type": "uint256"
        }
      ],
      "stateMutability": "view",
      "type": "function"
    },
    {
      "inputs": [
        {
          "internalType": "uint256",
          "name": "_quantity",
          "type": "uint256"
        }
      ],
      "name": "buyTickets",
      "outputs": [],
      "stateMutability": "payable",
      "type": "function"
    },
    {
      "inputs": [],
      "name": "cancelEvent",
      "outputs": [],
      "stateMutability": "nonpayable",
      "type": "function"
    },
    {
      "inputs": [],
      "name": "eventDate",
      "outputs": [
        {
          "internalType": "uint256",
          "name": "",
          "type": "uint256"
        }
      ],
      "stateMutability": "view",
      "type": "function"
    },
    {
      "inputs": [],
      "name": "eventId",
      "outputs": [
        {
          "internalType": "uint256",
          "name": "",
          "type": "uint256"
        }
      ],
      "stateMutability": "view",
      "type": "function"
    },
    {
      "inputs": [],
      "name": "eventLocation",
      "outputs": [
        {
          "internalType": "string",
          "name": "",
          "type": "string"
        }
      ],
      "stateMutability": "view",
      "type": "function"
    },
    {
      "inputs": [],
      "name": "eventName",
      "outputs": [
        {
          "internalType": "string",
          "name": "",
          "type": "string"
        }
      ],
      "stateMutability": "view",
      "type": "function"
    },
    {
      "inputs": [],
      "name": "fundsWithdrawn",
      "outputs": [
        {
          "internalType": "bool",
          "name": "",
          "type": "bool"
        }
      ],
      "stateMutability": "view",
      "type": "function"
    },
    {
      "inputs": [
        {
          "internalType": "uint256",
          "name": "tokenId",
          "type": "uint256"
        }
      ],
      "name": "getApproved",
      "outputs": [
        {
          "internalType": "address",
          "name": "",
          "type": "address"
        }
      ],
      "stateMutability": "view",
      "type": "function"
    },
    {
      "inputs": [],
      "name": "getEventDetails",
      "outputs": [
        {
          "internalType": "uint256",
          "name": "",
          "type": "uint256"
        },
        {
          "internalType": "string",
          "name": "",
          "type": "string"
        },
        {
          "internalType": "string",
          "name": "",
          "type": "string"
        },
        {
          "internalType": "uint256",
          "name": "",
          "type": "uint256"
        },
        {
          "internalType": "uint256",
          "name": "",
          "type": "uint256"
        },
        {
          "internalType": "uint256",
          "name": "",
          "type": "uint256"
        },
        {
          "internalType": "address",
          "name": "",
          "type": "address"
        },
        {
          "internalType": "bool",
          "name": "",
          "type": "bool"
        },
        {
          "internalType": "bool",
          "name": "",
          "type": "bool"
        }
      ],
      "stateMutability": "view",
      "type": "function"
    },
    {
      "inputs": [],
      "name": "getTicketPriceInWei",
      "outputs": [
        {
          "internalType": "uint256",
          "name": "",
          "type": "uint256"
        }
      ],
      "stateMutability": "view",
      "type": "function"
    },
    {
      "inputs": [
        {
          "internalType": "address",
          "name": "_owner",
          "type": "address"
        }
      ],
      "name": "getTicketsOfOwner",
      "outputs": [
        {
          "internalType": "uint256[]",
          "name": "",
          "type": "uint256[]"
        }
      ],
      "stateMutability": "view",
      "type": "function"
    },
    {
      "inputs": [
        {
          "internalType": "uint256",
          "name": "_quantity",
          "type": "uint256"
        }
      ],
      "name": "getTotalPriceWithFee",
      "outputs": [
        {
          "internalType": "uint256",
          "name": "",
          "type": "uint256"
        }
      ],
      "stateMutability": "view",
      "type": "function"
    },
    {
      "inputs": [
        {
          "internalType": "uint256",
          "name": "_ticketId",
          "type": "uint256"
        }
      ],
      "name": "invalidateTicket",
      "outputs": [],
      "stateMutability": "nonpayable",
      "type": "function"
    },
    {
      "inputs": [
        {
          "internalType": "uint256[]",
          "name": "_ticketIds",
          "type": "uint256[]"
        }
      ],
      "name": "invalidateTickets",
      "outputs": [],
      "stateMutability": "nonpayable",
      "type": "function"
    },
    {
      "inputs": [
        {
          "internalType": "address",
          "name": "owner",
          "type": "address"
        },
        {
          "internalType": "address",
          "name": "operator",
          "type": "address"
        }
      ],
      "name": "isApprovedForAll",
      "outputs": [
        {
          "internalType": "bool",
          "name": "",
          "type": "bool"
        }
      ],
      "stateMutability": "view",
      "type": "function"
    },
    {
      "inputs": [],
      "name": "isCancelled",
      "outputs": [
        {
          "internalType": "bool",
          "name": "",
          "type": "bool"
        }
      ],
      "stateMutability": "view",
      "type": "function"
    },
    {
      "inputs": [],
      "name": "name",
      "outputs": [
        {
          "internalType": "string",
          "name": "",
          "type": "string"
        }
      ],
      "stateMutability": "view",
      "type": "function"
    },
    {
      "inputs": [],
      "name": "nextTicketId",
      "outputs": [
        {
          "internalType": "uint256",
          "name": "",
          "type": "uint256"
        }
      ],
      "stateMutability": "view",
      "type": "function"
    },
    {
      "inputs": [],
      "name": "organizer",
      "outputs": [
        {
          "internalType": "address payable",
          "name": "",
          "type": "address"
        }
      ],
      "stateMutability": "view",
      "type": "function"
    },
    {
      "inputs": [],
      "name": "owner",
      "outputs": [
        {
          "internalType": "address",
          "name": "",
          "type": "address"
        }
      ],
      "stateMutability": "view",
      "type": "function"
    },
    {
      "inputs": [
        {
          "internalType": "uint256",
          "name": "tokenId",
          "type": "uint256"
        }
      ],
      "name": "ownerOf",
      "outputs": [
        {
          "internalType": "address",
          "name": "",
          "type": "address"
        }
      ],
      "stateMutability": "view",
      "type": "function"
    },
    {
      "inputs": [
        {
          "internalType": "address",
          "name": "",
          "type": "address"
        }
      ],
      "name": "pendingWithdrawals",
      "outputs": [
        {
          "internalType": "uint256",
          "name": "",
          "type": "uint256"
        }
      ],
      "stateMutability": "view",
      "type": "function"
    },
    {
      "inputs": [],
      "name": "platform",
      "outputs": [
        {
          "internalType": "address payable",
          "name": "",
          "type": "address"
        }
      ],
      "stateMutability": "view",
      "type": "function"
    },
    {
      "inputs": [],
      "name": "renounceOwnership",
      "outputs": [],
      "stateMutability": "nonpayable",
      "type": "function"
    },
    {
      "inputs": [
        {
          "internalType": "address",
          "name": "from",
          "type": "address"
        },
        {
          "internalType": "address",
          "name": "to",
          "type": "address"
        },
        {
          "internalType": "uint256",
          "name": "tokenId",
          "type": "uint256"
        }
      ],
      "name": "safeTransferFrom",
      "outputs": [],
      "stateMutability": "nonpayable",
      "type": "function"
    },
    {
      "inputs": [
        {
          "internalType": "address",
          "name": "from",
          "type": "address"
        },
        {
          "internalType": "address",
          "name": "to",
          "type": "address"
        },
        {
          "internalType": "uint256",
          "name": "tokenId",
          "type": "uint256"
        },
        {
          "internalType": "bytes",
          "name": "data",
          "type": "bytes"
        }
      ],
      "name": "safeTransferFrom",
      "outputs": [],
      "stateMutability": "nonpayable",
      "type": "function"
    },
    {
      "inputs": [
        {
          "internalType": "address",
          "name": "operator",
          "type": "address"
        },
        {
          "internalType": "bool",
          "name": "approved",
          "type": "bool"
        }
      ],
      "name": "setApprovalForAll",
      "outputs": [],
      "stateMutability": "nonpayable",
      "type": "function"
    },
    {
      "inputs": [
        {
          "internalType": "bytes4",
          "name": "interfaceId",
          "type": "bytes4"
        }
      ],
      "name": "supportsInterface",
      "outputs": [
        {
          "internalType": "bool",
          "name": "",
          "type": "bool"
        }
      ],
      "stateMutability": "view",
      "type": "function"
    },
    {
      "inputs": [],
      "name": "symbol",
      "outputs": [
        {
          "internalType": "string",
          "name": "",
          "type": "string"
        }
      ],
      "stateMutability": "view",
      "type": "function"
    },
    {
      "inputs": [],
      "name": "ticketPriceUSD",
      "outputs": [
        {
          "internalType": "uint256",
          "name": "",
          "type": "uint256"
        }
      ],
      "stateMutability": "view",
      "type": "function"
    },
    {
      "inputs": [
        {
          "internalType": "uint256",
          "name": "",
          "type": "uint256"
        }
      ],
      "name": "ticketPricesPaid",
      "outputs": [
        {
          "internalType": "uint256",
          "name": "",
          "type": "uint256"
        }
      ],
      "stateMutability": "view",
      "type": "function"
    },
    {
      "inputs": [
        {
          "internalType": "uint256",
          "name": "",
          "type": "uint256"
        }
      ],
      "name": "tickets",
      "outputs": [
        {
          "internalType": "uint256",
          "name": "ticketId",
          "type": "uint256"
        },
        {
          "internalType": "address",
          "name": "owner",
          "type": "address"
        },
        {
          "internalType": "bool",
          "name": "isValid",
          "type": "bool"
        }
      ],
      "stateMutability": "view",
      "type": "function"
    },
    {
      "inputs": [],
      "name": "ticketsAvailable",
      "outputs": [
        {
          "internalType": "uint256",
          "name": "",
          "type": "uint256"
        }
      ],
      "stateMutability": "view",
      "type": "function"
    },
    {
      "inputs": [
        {
          "internalType": "uint256",
          "name": "tokenId",
          "type": "uint256"
        }
      ],
      "name": "tokenURI",
      "outputs": [
        {
          "internalType": "string",
          "name": "",
          "type": "string"
        }
      ],
      "stateMutability": "view",
      "type": "function"
    },
    {
      "inputs": [
        {
          "internalType": "address",
          "name": "from",
          "type": "address"
        },
        {
          "internalType": "address",
          "name": "to",
          "type": "address"
        },
        {
          "internalType": "uint256",
          "name": "tokenId",
          "type": "uint256"
        }
      ],
      "name": "transferFrom",
      "outputs": [],
      "stateMutability": "nonpayable",
      "type": "function"
    },
    {
      "inputs": [
        {
          "internalType": "address",
          "name": "newOwner",
          "type": "address"
        }
      ],
      "name": "transferOwnership",
      "outputs": [],
      "stateMutability": "nonpayable",
      "type": "function"
    },
    {
      "inputs": [
        {
          "internalType": "uint256",
          "name": "_ticketId",
          "type": "uint256"
        },
        {
          "internalType": "address",
          "name": "_to",
          "type": "address"
        }
      ],
      "name": "transferTicket",
      "outputs": [],
      "stateMutability": "nonpayable",
      "type": "function"
    },
    {
      "inputs": [
        {
          "internalType": "uint256[]",
          "name": "_ticketIds",
          "type": "uint256[]"
        },
        {
          "internalType": "address",
          "name": "_to",
          "type": "address"
        }
      ],
      "name": "transferTickets",
      "outputs": [],
      "stateMutability": "nonpayable",
      "type": "function"
    },
    {
      "inputs": [],
      "name": "withdrawFunds",
      "outputs": [],
      "stateMutability": "nonpayable",
      "type": "function"
    }
  ],
  "bytecode": "0x608060405234801561001057600080fd5b506040516131f53803806131f583398101604081905261002f916102d8565b6040805180820190915260038152621512d560ea1b60208201523390899060006100598382610429565b5060016100668282610429565b5050506001600160a01b03811661009857604051631e4fbdf760e01b8152600060048201526024015b60405180910390fd5b6100a18161013b565b506001600755600889905560096100b88982610429565b50600a6100c58882610429565b50600b869055600c859055600d849055600e80546001600160a01b038086166001600160a01b0319928316179092556001600f5560108054848416610100026001600160a81b0319909116179055601480549285169290911691909117905561012d8361018d565b5050505050505050506104e7565b600680546001600160a01b038381166001600160a01b0319831681179093556040519116919082907f8be0079c531659141344cd1fd0a4f28419497f9722a3daafe3b4186f6b6457e090600090a35050565b6101956101cb565b6001600160a01b0381166101bf57604051631e4fbdf760e01b81526000600482015260240161008f565b6101c88161013b565b50565b6006546001600160a01b031633146101f85760405163118cdaa760e01b815233600482015260240161008f565b565b634e487b7160e01b600052604160045260246000fd5b600082601f83011261022157600080fd5b81516001600160401b0381111561023a5761023a6101fa565b604051601f8201601f19908116603f011681016001600160401b0381118282101715610268576102686101fa565b60405281815283820160200185101561028057600080fd5b60005b8281101561029f57602081860181015183830182015201610283565b506000918101602001919091529392505050565b6001600160a01b03811681146101c857600080fd5b80516102d3816102b3565b919050565b60008060008060008060008060006101208a8c0312156102f757600080fd5b895160208b01519099506001600160401b0381111561031557600080fd5b6103218c828d01610210565b60408c015190995090506001600160401b0381111561033f57600080fd5b61034b8c828d01610210565b60608c015160808d015160a08e015160c08f0151939b50919950975095509050610374816102b3565b925061038260e08b016102c8565b91506103916101008b016102c8565b90509295985092959850929598565b600181811c908216806103b457607f821691505b6020821081036103d457634e487b7160e01b600052602260045260246000fd5b50919050565b601f82111561042457806000526020600020601f840160051c810160208510156104015750805b601f840160051c820191505b81811015610421576000815560010161040d565b50505b505050565b81516001600160401b03811115610442576104426101fa565b6104568161045084546103a0565b846103da565b6020601f82116001811461048a57600083156104725750848201515b600019600385901b1c1916600184901b178455610421565b600084815260208120601f198516915b828110156104ba578785015182556020948501946001909201910161049a565b50848210156104d85786840151600019600387901b60f8161c191681555b50505050600190811b01905550565b612cff806104f66000396000f3fe6080604052600436106102465760003560e01c8063679ebf1a11610139578063a22cb465116100b6578063cd86efc21161007a578063cd86efc2146106c2578063e2bb3ccf146106ef578063e985e9c514610719578063f2fde38b14610739578063f3f4370314610759578063fb6c95371461078657600080fd5b8063a22cb46514610621578063ac307fcf14610641578063b88d4fde14610662578063c7ddab3614610682578063c87b56dd146106a257600080fd5b80638043c9c0116100fd5780638043c9c01461059257806385fd52f0146105a75780638da5cb5b146105d457806395d89b41146105f257806395ee12211461060757600080fd5b8063679ebf1a146104fd57806368456b1c1461051d57806370a082311461053d578063715018a61461055d578063720764b11461057257600080fd5b80632a6ca755116101c75780634bfbe5df1161018b5780634bfbe5df1461042357806350b44712146104395780636031a52f146104a757806361203265146104bd5780636352211e146104dd57600080fd5b80632a6ca755146103a15780632b74e984146103b65780632f366637146103cb57806342842e0e146103de5780634bde38c8146103fe57600080fd5b80631030c51e1161020e5780631030c51e1461032057806318253234146103365780631d6283361461034c57806323b872dd1461036c57806324600fc31461038c57600080fd5b806301ffc9a71461024b57806306fdde0314610280578063081812fc146102a2578063089cdd0c146102da578063095ea7b3146102fe575b600080fd5b34801561025757600080fd5b5061026b6102663660046125ed565b61079b565b60405190151581526020015b60405180910390f35b34801561028c57600080fd5b506102956107ed565b604051610277919061265a565b3480156102ae57600080fd5b506102c26102bd36600461266d565b61087f565b6040516001600160a01b039091168152602001610277565b3480156102e657600080fd5b506102f060085481565b604051908152602001610277565b34801561030a57600080fd5b5061031e61031936600461269d565b6108a8565b005b34801561032c57600080fd5b506102f0600c5481565b34801561034257600080fd5b506102f0600d5481565b34801561035857600080fd5b506102f061036736600461266d565b6108b7565b34801561037857600080fd5b5061031e6103873660046126c7565b6108f5565b34801561039857600080fd5b5061031e610985565b3480156103ad57600080fd5b50610295610b97565b3480156103c257600080fd5b506102f0610c25565b61031e6103d936600461266d565b610cdc565b3480156103ea57600080fd5b5061031e6103f93660046126c7565b6110d7565b34801561040a57600080fd5b506010546102c29061010090046001600160a01b031681565b34801561042f57600080fd5b506102f0600b5481565b34801561044557600080fd5b5061048261045436600461266d565b601160205260009081526040902080546001909101546001600160a01b03811690600160a01b900460ff1683565b604080519384526001600160a01b039092166020840152151590820152606001610277565b3480156104b357600080fd5b506102f0600f5481565b3480156104c957600080fd5b50600e546102c2906001600160a01b031681565b3480156104e957600080fd5b506102c26104f836600461266d565b6110f7565b34801561050957600080fd5b5061031e610518366004612704565b611102565b34801561052957600080fd5b5061031e6105383660046127f0565b611254565b34801561054957600080fd5b506102f0610558366004612835565b611355565b34801561056957600080fd5b5061031e61139d565b34801561057e57600080fd5b5061031e61058d366004612850565b6113af565b34801561059e57600080fd5b50610295611482565b3480156105b357600080fd5b506105c76105c2366004612835565b61148f565b6040516102779190612885565b3480156105e057600080fd5b506006546001600160a01b03166102c2565b3480156105fe57600080fd5b5061029561161a565b34801561061357600080fd5b5060105461026b9060ff1681565b34801561062d57600080fd5b5061031e61063c3660046128c8565b611629565b34801561064d57600080fd5b5060105461026b90600160a81b900460ff1681565b34801561066e57600080fd5b5061031e61067d366004612904565b611634565b34801561068e57600080fd5b5061031e61069d36600461266d565b61164c565b3480156106ae57600080fd5b506102956106bd36600461266d565b61172d565b3480156106ce57600080fd5b506102f06106dd36600461266d565b60126020526000908152604090205481565b3480156106fb57600080fd5b506107046117a2565b604051610277999897969594939291906129c9565b34801561072557600080fd5b5061026b610734366004612a38565b61191a565b34801561074557600080fd5b5061031e610754366004612835565b611948565b34801561076557600080fd5b506102f0610774366004612835565b60136020526000908152604090205481565b34801561079257600080fd5b5061031e611986565b60006001600160e01b031982166380ac58cd60e01b14806107cc57506001600160e01b03198216635b5e139f60e01b145b806107e757506301ffc9a760e01b6001600160e01b03198316145b92915050565b6060600080546107fc90612a62565b80601f016020809104026020016040519081016040528092919081815260200182805461082890612a62565b80156108755780601f1061084a57610100808354040283529160200191610875565b820191906000526020600020905b81548152906001019060200180831161085857829003601f168201915b5050505050905090565b600061088a82611a96565b506000828152600460205260409020546001600160a01b03166107e7565b6108b3828233611acf565b5050565b6000806108c2610c25565b905060006108d08483612ab2565b905060006108dd82611adc565b905060006108eb8284612ac9565b9695505050505050565b6001600160a01b03821661092457604051633250574960e11b8152600060048201526024015b60405180910390fd5b6000610931838333611af5565b9050836001600160a01b0316816001600160a01b03161461097f576040516364283d7b60e01b81526001600160a01b038086166004830152602482018490528216604482015260640161091b565b50505050565b61098d611bee565b610995611c1b565b60105460ff1615610a015760405162461bcd60e51b815260206004820152603060248201527f43616e6e6f742077697468647261772066756e6473206966207468652065766560448201526f373a1034b99031b0b731b2b63632b21760811b606482015260840161091b565b600b544211610a675760405162461bcd60e51b815260206004820152602c60248201527f43616e6e6f742077697468647261772066756e6473206265666f72652074686560448201526b1032bb32b73a103230ba329760a11b606482015260840161091b565b4780610aad5760405162461bcd60e51b8152602060048201526015602482015274273790333ab73239903a37903bb4ba34323930bb9760591b604482015260640161091b565b604051600090339083908381818185875af1925050503d8060008114610aef576040519150601f19603f3d011682016040523d82523d6000602084013e610af4565b606091505b505090508015610b4757610b336040518060400160405280601381526020017246756e64732077697468647261776e3a20257360681b81525083611c45565b6010805460ff60a81b1916600160a81b1790555b80610b895760405162461bcd60e51b81526020600482015260126024820152712bb4ba34323930bbb0b6103330b4b632b21760711b604482015260640161091b565b5050610b956001600755565b565b600a8054610ba490612a62565b80601f0160208091040260200160405190810160405280929190818152602001828054610bd090612a62565b8015610c1d5780601f10610bf257610100808354040283529160200191610c1d565b820191906000526020600020905b815481529060010190602001808311610c0057829003601f168201915b505050505081565b600080610c30611c8a565b905060008111610c825760405162461bcd60e51b815260206004820152601960248201527f50726574756c20455448206e7520657374652076616c69642e00000000000000604482015260640161091b565b600081600c546a52b7d2dcc80cd2e4000000610c9e9190612ab2565b610ca89190612adc565b90506107e76040518060400160405280601081526020016f507269636520696e205765693a20257360801b81525082611c45565b60105460ff1615610cff5760405162461bcd60e51b815260040161091b90612afe565b60008111610d4f5760405162461bcd60e51b815260206004820152601d60248201527f4d75737420627579206174206c65617374206f6e65207469636b65742e000000604482015260640161091b565b80600d541015610da15760405162461bcd60e51b815260206004820152601d60248201527f4e6f7420656e6f756768207469636b65747320617661696c61626c652e000000604482015260640161091b565b600b544210610e045760405162461bcd60e51b815260206004820152602960248201527f43616e6e6f74207075726368617365207469636b65747320616674657220657660448201526832b73a103230ba329760b91b606482015260840161091b565b6000610e0e610c25565b90506000610e1c8383612ab2565b90506000610e2982611adc565b90506000610e378284612ac9565b905080341015610e995760405162461bcd60e51b815260206004820152602760248201527f496e73756666696369656e742066756e647320746f207075726368617365207460448201526634b1b5b2ba399760c91b606482015260840161091b565b84600d6000828254610eab9190612b2b565b909155505060105460405160009161010090046001600160a01b03169084908381818185875af1925050503d8060008114610f02576040519150601f19603f3d011682016040523d82523d6000602084013e610f07565b606091505b5050905080610f585760405162461bcd60e51b815260206004820152601c60248201527f5365727669636520666565207472616e73666572206661696c65642e00000000604482015260640161091b565b60005b8681101561101f57600f54610f703382611d54565b60408051606081018252828152336020808301828152600184860181815260008881526011855287812096518755925195909101805491511515600160a01b026001600160a81b03199092166001600160a01b03969096169590951717909355601290528282208a9055915183917f785f2865353ae960010300f584fc6c577b757a853af69a99c769df3c8232d3de91a3600f805490600061101183612b3e565b909155505050600101610f5b565b50600061102c8334612b2b565b905080156110ce57604051600090339083908381818185875af1925050503d8060008114611076576040519150601f19603f3d011682016040523d82523d6000602084013e61107b565b606091505b50509050806110cc5760405162461bcd60e51b815260206004820181905260248201527f526566756e64206f6620657863657373207061796d656e74206661696c65642e604482015260640161091b565b505b50505050505050565b6110f283838360405180602001604052806000815250611634565b505050565b60006107e782611a96565b60105460ff16156111255760405162461bcd60e51b815260040161091b90612afe565b3361112f836110f7565b6001600160a01b0316146111855760405162461bcd60e51b815260206004820152601b60248201527f596f7520646f206e6f74206f776e2074686973207469636b65742e0000000000604482015260640161091b565b600b5442106111ec5760405162461bcd60e51b815260206004820152602d60248201527f43616e6e6f74207472616e73666572207469636b65747320616674657220746860448201526c329032bb32b73a103230ba329760991b606482015260840161091b565b6111f7338284611d6e565b60008281526011602052604080822060010180546001600160a01b0319166001600160a01b03851690811790915590519091339185917fd15524263ae66f75c1e604c47db6085085110f23ef7322b355179ac5e3b0783a91a45050565b60105460ff16156112775760405162461bcd60e51b815260040161091b90612afe565b60005b82518110156110f257600083828151811061129757611297612b57565b60200260200101519050336001600160a01b03166112b4826110f7565b6001600160a01b03161480156112e25750600081815260116020526040902060010154600160a01b900460ff165b1561134c576112f2338483611d6e565b60008181526011602052604080822060010180546001600160a01b0319166001600160a01b03871690811790915590519091339184917fd15524263ae66f75c1e604c47db6085085110f23ef7322b355179ac5e3b0783a91a45b5060010161127a565b60006001600160a01b038216611381576040516322718ad960e21b81526000600482015260240161091b565b506001600160a01b031660009081526003602052604090205490565b6113a5611bee565b610b956000611e1e565b600e546001600160a01b031633146113d95760405162461bcd60e51b815260040161091b90612b6d565b60005b81518110156108b35760008282815181106113f9576113f9612b57565b602002602001015190506011600082815260200190815260200160002060010160149054906101000a900460ff16156114795761143581611e70565b600081815260116020526040808220600101805460ff60a01b191690555182917f3d2e2c688a4e959f9f49fbb4703914231831fde152a68a8a1218418833249d7c91a25b506001016113dc565b60098054610ba490612a62565b606060006001600f546114a29190612b2b565b905060008167ffffffffffffffff8111156114bf576114bf612730565b6040519080825280602002602001820160405280156114e8578160200160208202803683370190505b509050600060015b83811161157e57600081815260116020526040902060010154600160a01b900460ff16801561153b57506000818152601160205260409020600101546001600160a01b038781169116145b1561156c578083838151811061155357611553612b57565b60209081029190910101528161156881612b3e565b9250505b8061157681612b3e565b9150506114f0565b5060008167ffffffffffffffff81111561159a5761159a612730565b6040519080825280602002602001820160405280156115c3578160200160208202803683370190505b50905060005b82811015611610578381815181106115e3576115e3612b57565b60200260200101518282815181106115fd576115fd612b57565b60209081029190910101526001016115c9565b5095945050505050565b6060600180546107fc90612a62565b6108b3338383611eab565b61163f8484846108f5565b61097f3385858585611f4a565b600e546001600160a01b031633146116765760405162461bcd60e51b815260040161091b90612b6d565b600081815260116020526040902060010154600160a01b900460ff166116de5760405162461bcd60e51b815260206004820152601a60248201527f5469636b657420697320616c726561647920696e76616c69642e000000000000604482015260640161091b565b6116e781611e70565b600081815260116020526040808220600101805460ff60a01b191690555182917f3d2e2c688a4e959f9f49fbb4703914231831fde152a68a8a1218418833249d7c91a250565b606061173882611a96565b50600061175060408051602081019091526000815290565b90506000815111611770576040518060200160405280600081525061179b565b8061177a84612075565b60405160200161178b929190612bbc565b6040516020818303038152906040525b9392505050565b60006060806000806000806000806008546009600a600b54600c54600d546117d26006546001600160a01b031690565b601054865460ff80831692600160a81b9004169088906117f190612a62565b80601f016020809104026020016040519081016040528092919081815260200182805461181d90612a62565b801561186a5780601f1061183f5761010080835404028352916020019161186a565b820191906000526020600020905b81548152906001019060200180831161184d57829003601f168201915b5050505050975086805461187d90612a62565b80601f01602080910402602001604051908101604052809291908181526020018280546118a990612a62565b80156118f65780601f106118cb576101008083540402835291602001916118f6565b820191906000526020600020905b8154815290600101906020018083116118d957829003601f168201915b50505050509650985098509850985098509850985098509850909192939495969798565b6001600160a01b03918216600090815260056020908152604080832093909416825291909152205460ff1690565b611950611bee565b6001600160a01b03811661197a57604051631e4fbdf760e01b81526000600482015260240161091b565b61198381611e1e565b50565b61198e611bee565b611996611c1b565b60105460ff16156119e95760405162461bcd60e51b815260206004820152601b60248201527f4576656e7420697320616c72656164792063616e63656c6c65642e0000000000604482015260640161091b565b601054600160a81b900460ff1615611a4e5760405162461bcd60e51b815260206004820152602260248201527f46756e6473206861766520616c7265616479206265656e207769746864726177604482015261371760f11b606482015260840161091b565b6010805460ff19166001179055611a63612108565b6040517fc423524f667a9459893f10159c8a95981a43fb77edd414f6325d8439604ad41890600090a1610b956001600755565b6000818152600260205260408120546001600160a01b0316806107e757604051637e27328960e01b81526004810184905260240161091b565b6110f28383836001612288565b60006064611aeb836002612ab2565b6107e79190612adc565b6000828152600260205260408120546001600160a01b0390811690831615611b2257611b2281848661238e565b6001600160a01b03811615611b6057611b3f600085600080612288565b6001600160a01b038116600090815260036020526040902080546000190190555b6001600160a01b03851615611b8f576001600160a01b0385166000908152600360205260409020805460010190555b60008481526002602052604080822080546001600160a01b0319166001600160a01b0389811691821790925591518793918516917fddf252ad1be2c89b69c2b068fc378daa952ba7f163c4a11628f55a4df523b3ef91a4949350505050565b6006546001600160a01b03163314610b955760405163118cdaa760e01b815233600482015260240161091b565b600260075403611c3e57604051633ee5aeb560e01b815260040160405180910390fd5b6002600755565b6108b38282604051602401611c5b929190612beb565b60408051601f198184030181529190526020810180516001600160e01b0316632d839cb360e21b1790526123f2565b600080601460009054906101000a90046001600160a01b03166001600160a01b031663feaf968c6040518163ffffffff1660e01b815260040160a060405180830381865afa158015611ce0573d6000803e3d6000fd5b505050506040513d601f19601f82011682018060405250810190611d049190612c27565b50505091505060008113611d4f5760405162461bcd60e51b815260206004820152601260248201527124b73b30b634b21022aa2410383934b1b29760711b604482015260640161091b565b919050565b6108b38282604051806020016040528060008152506123fb565b6001600160a01b038216611d9857604051633250574960e11b81526000600482015260240161091b565b6000611da683836000611af5565b90506001600160a01b038116611dd257604051637e27328960e01b81526004810183905260240161091b565b836001600160a01b0316816001600160a01b03161461097f576040516364283d7b60e01b81526001600160a01b038086166004830152602482018490528216604482015260640161091b565b600680546001600160a01b038381166001600160a01b0319831681179093556040519116919082907f8be0079c531659141344cd1fd0a4f28419497f9722a3daafe3b4186f6b6457e090600090a35050565b6000611e7f6000836000611af5565b90506001600160a01b0381166108b357604051637e27328960e01b81526004810183905260240161091b565b6001600160a01b038216611edd57604051630b61174360e31b81526001600160a01b038316600482015260240161091b565b6001600160a01b03838116600081815260056020908152604080832094871680845294825291829020805460ff191686151590811790915591519182527f17307eab39ab6107e8899845ad3d59bd9653f200f220920489ca2b5937696c31910160405180910390a3505050565b6001600160a01b0383163b1561206e57604051630a85bd0160e11b81526001600160a01b0384169063150b7a0290611f8c908890889087908790600401612c79565b6020604051808303816000875af1925050508015611fc7575060408051601f3d908101601f19168201909252611fc491810190612cac565b60015b612030573d808015611ff5576040519150601f19603f3d011682016040523d82523d6000602084013e611ffa565b606091505b50805160000361202857604051633250574960e11b81526001600160a01b038516600482015260240161091b565b805181602001fd5b6001600160e01b03198116630a85bd0160e11b1461206c57604051633250574960e11b81526001600160a01b038516600482015260240161091b565b505b5050505050565b6060600061208283612413565b600101905060008167ffffffffffffffff8111156120a2576120a2612730565b6040519080825280601f01601f1916602001820160405280156120cc576020820181803683370190505b5090508181016020015b600019016f181899199a1a9b1b9c1cb0b131b232b360811b600a86061a8153600a85049450846120d657509392505050565b60015b600f5481101561198357600081815260116020526040902060010154600160a01b900460ff161561225757600081815260116020818152604080842060010180546012845291909420549290915260ff60a01b1981169092556001600160a01b039091169061217983611e70565b8015612254576000826001600160a01b03168260405160006040518083038185875af1925050503d80600081146121cc576040519150601f19603f3d011682016040523d82523d6000602084013e6121d1565b606091505b50509050801561222457826001600160a01b0316847f8c8fd3da31954f4657d981e2a89ea3421ef5d7bfa0998012eaff5f24a61a867a8460405161221791815260200190565b60405180910390a3612252565b6001600160a01b0383166000908152601360205260408120805484929061224c908490612ac9565b90915550505b505b50505b600081815260116020526040902060010154600160a01b900460ff166122805761228081611e70565b60010161210b565b808061229c57506001600160a01b03821615155b1561235e5760006122ac84611a96565b90506001600160a01b038316158015906122d85750826001600160a01b0316816001600160a01b031614155b80156122eb57506122e9818461191a565b155b156123145760405163a9fbf51f60e01b81526001600160a01b038416600482015260240161091b565b811561235c5783856001600160a01b0316826001600160a01b03167f8c5be1e5ebec7d5bd14f71427d1e84f3dd0314c0f7b2291e5b200ac8c7c3b92560405160405180910390a45b505b5050600090815260046020526040902080546001600160a01b0319166001600160a01b0392909216919091179055565b6123998383836124eb565b6110f2576001600160a01b0383166123c757604051637e27328960e01b81526004810182905260240161091b565b60405163177e802f60e01b81526001600160a01b03831660048201526024810182905260440161091b565b61198381612551565b6124058383612572565b6110f2336000858585611f4a565b60008072184f03e93ff9f4daa797ed6e38ed64bf6a1f0160401b83106124525772184f03e93ff9f4daa797ed6e38ed64bf6a1f0160401b830492506040015b6d04ee2d6d415b85acef8100000000831061247e576d04ee2d6d415b85acef8100000000830492506020015b662386f26fc10000831061249c57662386f26fc10000830492506010015b6305f5e10083106124b4576305f5e100830492506008015b61271083106124c857612710830492506004015b606483106124da576064830492506002015b600a83106107e75760010192915050565b60006001600160a01b038316158015906125495750826001600160a01b0316846001600160a01b031614806125255750612525848461191a565b8061254957506000828152600460205260409020546001600160a01b038481169116145b949350505050565b60006a636f6e736f6c652e6c6f679050600080835160208501845afa505050565b6001600160a01b03821661259c57604051633250574960e11b81526000600482015260240161091b565b60006125aa83836000611af5565b90506001600160a01b038116156110f2576040516339e3563760e11b81526000600482015260240161091b565b6001600160e01b03198116811461198357600080fd5b6000602082840312156125ff57600080fd5b813561179b816125d7565b60005b8381101561262557818101518382015260200161260d565b50506000910152565b6000815180845261264681602086016020860161260a565b601f01601f19169290920160200192915050565b60208152600061179b602083018461262e565b60006020828403121561267f57600080fd5b5035919050565b80356001600160a01b0381168114611d4f57600080fd5b600080604083850312156126b057600080fd5b6126b983612686565b946020939093013593505050565b6000806000606084860312156126dc57600080fd5b6126e584612686565b92506126f360208501612686565b929592945050506040919091013590565b6000806040838503121561271757600080fd5b8235915061272760208401612686565b90509250929050565b634e487b7160e01b600052604160045260246000fd5b604051601f8201601f1916810167ffffffffffffffff8111828210171561276f5761276f612730565b604052919050565b600082601f83011261278857600080fd5b813567ffffffffffffffff8111156127a2576127a2612730565b8060051b6127b260208201612746565b918252602081850181019290810190868411156127ce57600080fd5b6020860192505b838310156108eb5782358252602092830192909101906127d5565b6000806040838503121561280357600080fd5b823567ffffffffffffffff81111561281a57600080fd5b61282685828601612777565b92505061272760208401612686565b60006020828403121561284757600080fd5b61179b82612686565b60006020828403121561286257600080fd5b813567ffffffffffffffff81111561287957600080fd5b61254984828501612777565b602080825282518282018190526000918401906040840190835b818110156128bd57835183526020938401939092019160010161289f565b509095945050505050565b600080604083850312156128db57600080fd5b6128e483612686565b9150602083013580151581146128f957600080fd5b809150509250929050565b6000806000806080858703121561291a57600080fd5b61292385612686565b935061293160208601612686565b925060408501359150606085013567ffffffffffffffff81111561295457600080fd5b8501601f8101871361296557600080fd5b803567ffffffffffffffff81111561297f5761297f612730565b612992601f8201601f1916602001612746565b8181528860208385010111156129a757600080fd5b8160208401602083013760006020838301015280935050505092959194509250565b898152610120602082015260006129e461012083018b61262e565b82810360408401526129f6818b61262e565b60608401999099525050608081019590955260a08501939093526001600160a01b039190911660c0840152151560e08301521515610100909101529392505050565b60008060408385031215612a4b57600080fd5b612a5483612686565b915061272760208401612686565b600181811c90821680612a7657607f821691505b602082108103612a9657634e487b7160e01b600052602260045260246000fd5b50919050565b634e487b7160e01b600052601160045260246000fd5b80820281158282048414176107e7576107e7612a9c565b808201808211156107e7576107e7612a9c565b600082612af957634e487b7160e01b600052601260045260246000fd5b500490565b60208082526013908201527222bb32b73a1034b99031b0b731b2b63632b21760691b604082015260600190565b818103818111156107e7576107e7612a9c565b600060018201612b5057612b50612a9c565b5060010190565b634e487b7160e01b600052603260045260246000fd5b6020808252602f908201527f446f6172206f7267616e697a61746f72756c20706f617465206170656c61206160408201526e31b2b0b9ba3090333ab731ba34b29760891b606082015260800190565b60008351612bce81846020880161260a565b835190830190612be281836020880161260a565b01949350505050565b604081526000612bfe604083018561262e565b90508260208301529392505050565b805169ffffffffffffffffffff81168114611d4f57600080fd5b600080600080600060a08688031215612c3f57600080fd5b612c4886612c0d565b60208701516040880151606089015192975090955093509150612c6d60808701612c0d565b90509295509295909350565b6001600160a01b03858116825284166020820152604081018390526080606082018190526000906108eb9083018461262e565b600060208284031215612cbe57600080fd5b815161179b816125d756fea264697066735822122098b291b01f3cd23b4c9e7d16309f0169b93cf10bab81bd0b1fd0bb21e49b4e0d64736f6c634300081b0033",
  "linkReferences": {},
  "deployedLinkReferences": {}
}