{
  "_format": "hh-sol-artifact-1",
  "contractName": "TicketingPlatform",
  "sourceName": "contracts/TicketingPlatform.sol",
  "abi": [
    {
      "inputs": [
        {
          "internalType": "address",
          "name": "_priceFeedAddress",
          "type": "address"
        }
      ],
      "stateMutability": "nonpayable",
      "type": "constructor"
    },
    {
      "anonymous": false,
      "inputs": [
        {
          "indexed": true,
          "internalType": "uint256",
          "name": "eventId",
          "type": "uint256"
        },
        {
          "indexed": true,
          "internalType": "address",
          "name": "eventAddress",
          "type": "address"
        },
        {
          "indexed": true,
          "internalType": "address",
          "name": "organizer",
          "type": "address"
        }
      ],
      "name": "EventCreated",
      "type": "event"
    },
    {
      "inputs": [
        {
          "internalType": "string",
          "name": "_eventName",
          "type": "string"
        },
        {
          "internalType": "string",
          "name": "_eventLocation",
          "type": "string"
        },
        {
          "internalType": "uint256",
          "name": "_eventDate",
          "type": "uint256"
        },
        {
          "internalType": "uint256",
          "name": "_ticketPriceUSD",
          "type": "uint256"
        },
        {
          "internalType": "uint256",
          "name": "_ticketsAvailable",
          "type": "uint256"
        }
      ],
      "name": "createEvent",
      "outputs": [],
      "stateMutability": "nonpayable",
      "type": "function"
    },
    {
      "inputs": [
        {
          "internalType": "uint256",
          "name": "",
          "type": "uint256"
        }
      ],
      "name": "events",
      "outputs": [
        {
          "internalType": "address",
          "name": "",
          "type": "address"
        }
      ],
      "stateMutability": "view",
      "type": "function"
    },
    {
      "inputs": [
        {
          "internalType": "uint256",
          "name": "_eventId",
          "type": "uint256"
        }
      ],
      "name": "getEventAddress",
      "outputs": [
        {
          "internalType": "address",
          "name": "",
          "type": "address"
        }
      ],
      "stateMutability": "view",
      "type": "function"
    },
    {
      "inputs": [],
      "name": "nextEventId",
      "outputs": [
        {
          "internalType": "uint256",
          "name": "",
          "type": "uint256"
        }
      ],
      "stateMutability": "view",
      "type": "function"
    },
    {
      "inputs": [],
      "name": "priceFeedAddress",
      "outputs": [
        {
          "internalType": "address",
          "name": "",
          "type": "address"
        }
      ],
      "stateMutability": "view",
      "type": "function"
    }
  ],
  "bytecode": "0x6080604052348015600f57600080fd5b506040516137ba3803806137ba833981016040819052602c916050565b600280546001600160a01b0319166001600160a01b0392909216919091179055607e565b600060208284031215606157600080fd5b81516001600160a01b0381168114607757600080fd5b9392505050565b61372d8061008d6000396000f3fe608060405234801561001057600080fd5b50600436106100575760003560e01c80630b7914301461005c5780631c25f16e146100a25780633c2fc56c146100cb5780639f9d903a146100e0578063e0abca0b146100f7575b600080fd5b61008561006a3660046102ac565b6001602052600090815260409020546001600160a01b031681565b6040516001600160a01b0390911681526020015b60405180910390f35b6100856100b03660046102ac565b6000908152600160205260409020546001600160a01b031690565b6100de6100d936600461036a565b61010a565b005b6100e960005481565b604051908152602001610099565b600254610085906001600160a01b031681565b4283116101685760405162461bcd60e51b815260206004820152602160248201527f4576656e742064617465206d75737420626520696e20746865206675747572656044820152601760f91b60648201526084015b60405180910390fd5b600081116101cd5760405162461bcd60e51b815260206004820152602c60248201527f5468657265206d757374206265206174206c65617374206f6e65207469636b6560448201526b3a1030bb30b4b630b136329760a11b606482015260840161015f565b60008054868686868633600260009054906101000a90046001600160a01b0316336040516101fa9061029f565b61020c99989796959493929190610434565b604051809103906000f080158015610228573d6000803e3d6000fd5b506000805481526001602052604080822080546001600160a01b0319166001600160a01b03851690811790915582549151939450339390927fbc30926aa39d11d8e1c5c4cef558355357f816a6cd38de3bfb11f4f5cfc2691b91a4600080549080610292836104a1565b9190505550505050505050565b61322f806104c983390190565b6000602082840312156102be57600080fd5b5035919050565b634e487b7160e01b600052604160045260246000fd5b600082601f8301126102ec57600080fd5b813567ffffffffffffffff811115610306576103066102c5565b604051601f8201601f19908116603f0116810167ffffffffffffffff81118282101715610335576103356102c5565b60405281815283820160200185101561034d57600080fd5b816020850160208301376000918101602001919091529392505050565b600080600080600060a0868803121561038257600080fd5b853567ffffffffffffffff81111561039957600080fd5b6103a5888289016102db565b955050602086013567ffffffffffffffff8111156103c257600080fd5b6103ce888289016102db565b959895975050505060408401359360608101359360809091013592509050565b6000815180845260005b81811015610414576020818501810151868301820152016103f8565b506000602082860101526020601f19601f83011685010191505092915050565b8981526101206020820152600061044f61012083018b6103ee565b8281036040840152610461818b6103ee565b60608401999099525050608081019590955260a08501939093526001600160a01b0391821660c0850152811660e084015216610100909101529392505050565b6000600182016104c157634e487b7160e01b600052601160045260246000fd5b506001019056fe608060405234801561001057600080fd5b5060405161322f38038061322f83398101604081905261002f916102d8565b6040805180820190915260038152621512d560ea1b60208201523390899060006100598382610429565b5060016100668282610429565b5050506001600160a01b03811661009857604051631e4fbdf760e01b8152600060048201526024015b60405180910390fd5b6100a18161013b565b506001600755600889905560096100b88982610429565b50600a6100c58882610429565b50600b869055600c859055600d849055600e80546001600160a01b038086166001600160a01b0319928316179092556001600f5560108054848416610100026001600160b01b0319909116179055601480549285169290911691909117905561012d8361018d565b5050505050505050506104e7565b600680546001600160a01b038381166001600160a01b0319831681179093556040519116919082907f8be0079c531659141344cd1fd0a4f28419497f9722a3daafe3b4186f6b6457e090600090a35050565b6101956101cb565b6001600160a01b0381166101bf57604051631e4fbdf760e01b81526000600482015260240161008f565b6101c88161013b565b50565b6006546001600160a01b031633146101f85760405163118cdaa760e01b815233600482015260240161008f565b565b634e487b7160e01b600052604160045260246000fd5b600082601f83011261022157600080fd5b81516001600160401b0381111561023a5761023a6101fa565b604051601f8201601f19908116603f011681016001600160401b0381118282101715610268576102686101fa565b60405281815283820160200185101561028057600080fd5b60005b8281101561029f57602081860181015183830182015201610283565b506000918101602001919091529392505050565b6001600160a01b03811681146101c857600080fd5b80516102d3816102b3565b919050565b60008060008060008060008060006101208a8c0312156102f757600080fd5b895160208b01519099506001600160401b0381111561031557600080fd5b6103218c828d01610210565b60408c015190995090506001600160401b0381111561033f57600080fd5b61034b8c828d01610210565b60608c015160808d015160a08e015160c08f0151939b50919950975095509050610374816102b3565b925061038260e08b016102c8565b91506103916101008b016102c8565b90509295985092959850929598565b600181811c908216806103b457607f821691505b6020821081036103d457634e487b7160e01b600052602260045260246000fd5b50919050565b601f82111561042457806000526020600020601f840160051c810160208510156104015750805b601f840160051c820191505b81811015610421576000815560010161040d565b50505b505050565b81516001600160401b03811115610442576104426101fa565b6104568161045084546103a0565b846103da565b6020601f82116001811461048a57600083156104725750848201515b600019600385901b1c1916600184901b178455610421565b600084815260208120601f198516915b828110156104ba578785015182556020948501946001909201910161049a565b50848210156104d85786840151600019600387901b60f8161c191681555b50505050600190811b01905550565b612d39806104f66000396000f3fe6080604052600436106102465760003560e01c8063679ebf1a11610139578063a22cb465116100b6578063cd86efc21161007a578063cd86efc2146106c2578063e2bb3ccf146106ef578063e985e9c514610719578063f2fde38b14610739578063f3f4370314610759578063fb6c95371461078657600080fd5b8063a22cb46514610621578063ac307fcf14610641578063b88d4fde14610662578063c7ddab3614610682578063c87b56dd146106a257600080fd5b80638043c9c0116100fd5780638043c9c01461059257806385fd52f0146105a75780638da5cb5b146105d457806395d89b41146105f257806395ee12211461060757600080fd5b8063679ebf1a146104fd57806368456b1c1461051d57806370a082311461053d578063715018a61461055d578063720764b11461057257600080fd5b80632a6ca755116101c75780634bfbe5df1161018b5780634bfbe5df1461042357806350b44712146104395780636031a52f146104a757806361203265146104bd5780636352211e146104dd57600080fd5b80632a6ca755146103a15780632b74e984146103b65780632f366637146103cb57806342842e0e146103de5780634bde38c8146103fe57600080fd5b80631030c51e1161020e5780631030c51e1461032057806318253234146103365780631d6283361461034c57806323b872dd1461036c57806324600fc31461038c57600080fd5b806301ffc9a71461024b57806306fdde0314610280578063081812fc146102a2578063089cdd0c146102da578063095ea7b3146102fe575b600080fd5b34801561025757600080fd5b5061026b610266366004612627565b61079b565b60405190151581526020015b60405180910390f35b34801561028c57600080fd5b506102956107ed565b6040516102779190612694565b3480156102ae57600080fd5b506102c26102bd3660046126a7565b61087f565b6040516001600160a01b039091168152602001610277565b3480156102e657600080fd5b506102f060085481565b604051908152602001610277565b34801561030a57600080fd5b5061031e6103193660046126d7565b6108a8565b005b34801561032c57600080fd5b506102f0600c5481565b34801561034257600080fd5b506102f0600d5481565b34801561035857600080fd5b506102f06103673660046126a7565b6108b7565b34801561037857600080fd5b5061031e610387366004612701565b6108f5565b34801561039857600080fd5b5061031e610985565b3480156103ad57600080fd5b50610295610bd1565b3480156103c257600080fd5b506102f0610c5f565b61031e6103d93660046126a7565b610d16565b3480156103ea57600080fd5b5061031e6103f9366004612701565b611111565b34801561040a57600080fd5b506010546102c29061010090046001600160a01b031681565b34801561042f57600080fd5b506102f0600b5481565b34801561044557600080fd5b506104826104543660046126a7565b601160205260009081526040902080546001909101546001600160a01b03811690600160a01b900460ff1683565b604080519384526001600160a01b039092166020840152151590820152606001610277565b3480156104b357600080fd5b506102f0600f5481565b3480156104c957600080fd5b50600e546102c2906001600160a01b031681565b3480156104e957600080fd5b506102c26104f83660046126a7565b611131565b34801561050957600080fd5b5061031e61051836600461273e565b61113c565b34801561052957600080fd5b5061031e61053836600461282a565b61128e565b34801561054957600080fd5b506102f061055836600461286f565b61138f565b34801561056957600080fd5b5061031e6113d7565b34801561057e57600080fd5b5061031e61058d36600461288a565b6113e9565b34801561059e57600080fd5b506102956114bc565b3480156105b357600080fd5b506105c76105c236600461286f565b6114c9565b60405161027791906128bf565b3480156105e057600080fd5b506006546001600160a01b03166102c2565b3480156105fe57600080fd5b50610295611654565b34801561061357600080fd5b5060105461026b9060ff1681565b34801561062d57600080fd5b5061031e61063c366004612902565b611663565b34801561064d57600080fd5b5060105461026b90600160a81b900460ff1681565b34801561066e57600080fd5b5061031e61067d36600461293e565b61166e565b34801561068e57600080fd5b5061031e61069d3660046126a7565b611686565b3480156106ae57600080fd5b506102956106bd3660046126a7565b611767565b3480156106ce57600080fd5b506102f06106dd3660046126a7565b60126020526000908152604090205481565b3480156106fb57600080fd5b506107046117dc565b60405161027799989796959493929190612a03565b34801561072557600080fd5b5061026b610734366004612a72565b611954565b34801561074557600080fd5b5061031e61075436600461286f565b611982565b34801561076557600080fd5b506102f061077436600461286f565b60136020526000908152604090205481565b34801561079257600080fd5b5061031e6119c0565b60006001600160e01b031982166380ac58cd60e01b14806107cc57506001600160e01b03198216635b5e139f60e01b145b806107e757506301ffc9a760e01b6001600160e01b03198316145b92915050565b6060600080546107fc90612a9c565b80601f016020809104026020016040519081016040528092919081815260200182805461082890612a9c565b80156108755780601f1061084a57610100808354040283529160200191610875565b820191906000526020600020905b81548152906001019060200180831161085857829003601f168201915b5050505050905090565b600061088a82611ad0565b506000828152600460205260409020546001600160a01b03166107e7565b6108b3828233611b09565b5050565b6000806108c2610c5f565b905060006108d08483612aec565b905060006108dd82611b16565b905060006108eb8284612b03565b9695505050505050565b6001600160a01b03821661092457604051633250574960e11b8152600060048201526024015b60405180910390fd5b6000610931838333611b2f565b9050836001600160a01b0316816001600160a01b03161461097f576040516364283d7b60e01b81526001600160a01b038086166004830152602482018490528216604482015260640161091b565b50505050565b61098d611c28565b610995611c55565b60105460ff1615610a015760405162461bcd60e51b815260206004820152603060248201527f43616e6e6f742077697468647261772066756e6473206966207468652065766560448201526f373a1034b99031b0b731b2b63632b21760811b606482015260840161091b565b600b544211610a675760405162461bcd60e51b815260206004820152602c60248201527f43616e6e6f742077697468647261772066756e6473206265666f72652074686560448201526b1032bb32b73a103230ba329760a11b606482015260840161091b565b4780610aad5760405162461bcd60e51b8152602060048201526015602482015274273790333ab73239903a37903bb4ba34323930bb9760591b604482015260640161091b565b604051600090339083908381818185875af1925050503d8060008114610aef576040519150601f19603f3d011682016040523d82523d6000602084013e610af4565b606091505b505090508015610b8157610b336040518060400160405280601381526020017246756e64732077697468647261776e3a20257360681b81525083611c7f565b6010805460ff60a81b1916600160a81b1790556040517f4a37b25aab49761ecf63117fe82b98d750917451133cf797507bc9fb5b96044a90610b789084815260200190565b60405180910390a15b80610bc35760405162461bcd60e51b81526020600482015260126024820152712bb4ba34323930bbb0b6103330b4b632b21760711b604482015260640161091b565b5050610bcf6001600755565b565b600a8054610bde90612a9c565b80601f0160208091040260200160405190810160405280929190818152602001828054610c0a90612a9c565b8015610c575780601f10610c2c57610100808354040283529160200191610c57565b820191906000526020600020905b815481529060010190602001808311610c3a57829003601f168201915b505050505081565b600080610c6a611cc4565b905060008111610cbc5760405162461bcd60e51b815260206004820152601960248201527f50726574756c20455448206e7520657374652076616c69642e00000000000000604482015260640161091b565b600081600c546a52b7d2dcc80cd2e4000000610cd89190612aec565b610ce29190612b16565b90506107e76040518060400160405280601081526020016f507269636520696e205765693a20257360801b81525082611c7f565b60105460ff1615610d395760405162461bcd60e51b815260040161091b90612b38565b60008111610d895760405162461bcd60e51b815260206004820152601d60248201527f4d75737420627579206174206c65617374206f6e65207469636b65742e000000604482015260640161091b565b80600d541015610ddb5760405162461bcd60e51b815260206004820152601d60248201527f4e6f7420656e6f756768207469636b65747320617661696c61626c652e000000604482015260640161091b565b600b544210610e3e5760405162461bcd60e51b815260206004820152602960248201527f43616e6e6f74207075726368617365207469636b65747320616674657220657660448201526832b73a103230ba329760b91b606482015260840161091b565b6000610e48610c5f565b90506000610e568383612aec565b90506000610e6382611b16565b90506000610e718284612b03565b905080341015610ed35760405162461bcd60e51b815260206004820152602760248201527f496e73756666696369656e742066756e647320746f207075726368617365207460448201526634b1b5b2ba399760c91b606482015260840161091b565b84600d6000828254610ee59190612b65565b909155505060105460405160009161010090046001600160a01b03169084908381818185875af1925050503d8060008114610f3c576040519150601f19603f3d011682016040523d82523d6000602084013e610f41565b606091505b5050905080610f925760405162461bcd60e51b815260206004820152601c60248201527f5365727669636520666565207472616e73666572206661696c65642e00000000604482015260640161091b565b60005b8681101561105957600f54610faa3382611d8e565b60408051606081018252828152336020808301828152600184860181815260008881526011855287812096518755925195909101805491511515600160a01b026001600160a81b03199092166001600160a01b03969096169590951717909355601290528282208a9055915183917f785f2865353ae960010300f584fc6c577b757a853af69a99c769df3c8232d3de91a3600f805490600061104b83612b78565b909155505050600101610f95565b5060006110668334612b65565b9050801561110857604051600090339083908381818185875af1925050503d80600081146110b0576040519150601f19603f3d011682016040523d82523d6000602084013e6110b5565b606091505b50509050806111065760405162461bcd60e51b815260206004820181905260248201527f526566756e64206f6620657863657373207061796d656e74206661696c65642e604482015260640161091b565b505b50505050505050565b61112c8383836040518060200160405280600081525061166e565b505050565b60006107e782611ad0565b60105460ff161561115f5760405162461bcd60e51b815260040161091b90612b38565b3361116983611131565b6001600160a01b0316146111bf5760405162461bcd60e51b815260206004820152601b60248201527f596f7520646f206e6f74206f776e2074686973207469636b65742e0000000000604482015260640161091b565b600b5442106112265760405162461bcd60e51b815260206004820152602d60248201527f43616e6e6f74207472616e73666572207469636b65747320616674657220746860448201526c329032bb32b73a103230ba329760991b606482015260840161091b565b611231338284611da8565b60008281526011602052604080822060010180546001600160a01b0319166001600160a01b03851690811790915590519091339185917fd15524263ae66f75c1e604c47db6085085110f23ef7322b355179ac5e3b0783a91a45050565b60105460ff16156112b15760405162461bcd60e51b815260040161091b90612b38565b60005b825181101561112c5760008382815181106112d1576112d1612b91565b60200260200101519050336001600160a01b03166112ee82611131565b6001600160a01b031614801561131c5750600081815260116020526040902060010154600160a01b900460ff165b156113865761132c338483611da8565b60008181526011602052604080822060010180546001600160a01b0319166001600160a01b03871690811790915590519091339184917fd15524263ae66f75c1e604c47db6085085110f23ef7322b355179ac5e3b0783a91a45b506001016112b4565b60006001600160a01b0382166113bb576040516322718ad960e21b81526000600482015260240161091b565b506001600160a01b031660009081526003602052604090205490565b6113df611c28565b610bcf6000611e58565b600e546001600160a01b031633146114135760405162461bcd60e51b815260040161091b90612ba7565b60005b81518110156108b357600082828151811061143357611433612b91565b602002602001015190506011600082815260200190815260200160002060010160149054906101000a900460ff16156114b35761146f81611eaa565b600081815260116020526040808220600101805460ff60a01b191690555182917f3d2e2c688a4e959f9f49fbb4703914231831fde152a68a8a1218418833249d7c91a25b50600101611416565b60098054610bde90612a9c565b606060006001600f546114dc9190612b65565b905060008167ffffffffffffffff8111156114f9576114f961276a565b604051908082528060200260200182016040528015611522578160200160208202803683370190505b509050600060015b8381116115b857600081815260116020526040902060010154600160a01b900460ff16801561157557506000818152601160205260409020600101546001600160a01b038781169116145b156115a6578083838151811061158d5761158d612b91565b6020908102919091010152816115a281612b78565b9250505b806115b081612b78565b91505061152a565b5060008167ffffffffffffffff8111156115d4576115d461276a565b6040519080825280602002602001820160405280156115fd578160200160208202803683370190505b50905060005b8281101561164a5783818151811061161d5761161d612b91565b602002602001015182828151811061163757611637612b91565b6020908102919091010152600101611603565b5095945050505050565b6060600180546107fc90612a9c565b6108b3338383611ee5565b6116798484846108f5565b61097f3385858585611f84565b600e546001600160a01b031633146116b05760405162461bcd60e51b815260040161091b90612ba7565b600081815260116020526040902060010154600160a01b900460ff166117185760405162461bcd60e51b815260206004820152601a60248201527f5469636b657420697320616c726561647920696e76616c69642e000000000000604482015260640161091b565b61172181611eaa565b600081815260116020526040808220600101805460ff60a01b191690555182917f3d2e2c688a4e959f9f49fbb4703914231831fde152a68a8a1218418833249d7c91a250565b606061177282611ad0565b50600061178a60408051602081019091526000815290565b905060008151116117aa57604051806020016040528060008152506117d5565b806117b4846120af565b6040516020016117c5929190612bf6565b6040516020818303038152906040525b9392505050565b60006060806000806000806000806008546009600a600b54600c54600d5461180c6006546001600160a01b031690565b601054865460ff80831692600160a81b90041690889061182b90612a9c565b80601f016020809104026020016040519081016040528092919081815260200182805461185790612a9c565b80156118a45780601f10611879576101008083540402835291602001916118a4565b820191906000526020600020905b81548152906001019060200180831161188757829003601f168201915b505050505097508680546118b790612a9c565b80601f01602080910402602001604051908101604052809291908181526020018280546118e390612a9c565b80156119305780601f1061190557610100808354040283529160200191611930565b820191906000526020600020905b81548152906001019060200180831161191357829003601f168201915b50505050509650985098509850985098509850985098509850909192939495969798565b6001600160a01b03918216600090815260056020908152604080832093909416825291909152205460ff1690565b61198a611c28565b6001600160a01b0381166119b457604051631e4fbdf760e01b81526000600482015260240161091b565b6119bd81611e58565b50565b6119c8611c28565b6119d0611c55565b60105460ff1615611a235760405162461bcd60e51b815260206004820152601b60248201527f4576656e7420697320616c72656164792063616e63656c6c65642e0000000000604482015260640161091b565b601054600160a81b900460ff1615611a885760405162461bcd60e51b815260206004820152602260248201527f46756e6473206861766520616c7265616479206265656e207769746864726177604482015261371760f11b606482015260840161091b565b6010805460ff19166001179055611a9d612142565b6040517fc423524f667a9459893f10159c8a95981a43fb77edd414f6325d8439604ad41890600090a1610bcf6001600755565b6000818152600260205260408120546001600160a01b0316806107e757604051637e27328960e01b81526004810184905260240161091b565b61112c83838360016122c2565b60006064611b25836002612aec565b6107e79190612b16565b6000828152600260205260408120546001600160a01b0390811690831615611b5c57611b5c8184866123c8565b6001600160a01b03811615611b9a57611b796000856000806122c2565b6001600160a01b038116600090815260036020526040902080546000190190555b6001600160a01b03851615611bc9576001600160a01b0385166000908152600360205260409020805460010190555b60008481526002602052604080822080546001600160a01b0319166001600160a01b0389811691821790925591518793918516917fddf252ad1be2c89b69c2b068fc378daa952ba7f163c4a11628f55a4df523b3ef91a4949350505050565b6006546001600160a01b03163314610bcf5760405163118cdaa760e01b815233600482015260240161091b565b600260075403611c7857604051633ee5aeb560e01b815260040160405180910390fd5b6002600755565b6108b38282604051602401611c95929190612c25565b60408051601f198184030181529190526020810180516001600160e01b0316632d839cb360e21b17905261242c565b600080601460009054906101000a90046001600160a01b03166001600160a01b031663feaf968c6040518163ffffffff1660e01b815260040160a060405180830381865afa158015611d1a573d6000803e3d6000fd5b505050506040513d601f19601f82011682018060405250810190611d3e9190612c61565b50505091505060008113611d895760405162461bcd60e51b815260206004820152601260248201527124b73b30b634b21022aa2410383934b1b29760711b604482015260640161091b565b919050565b6108b3828260405180602001604052806000815250612435565b6001600160a01b038216611dd257604051633250574960e11b81526000600482015260240161091b565b6000611de083836000611b2f565b90506001600160a01b038116611e0c57604051637e27328960e01b81526004810183905260240161091b565b836001600160a01b0316816001600160a01b03161461097f576040516364283d7b60e01b81526001600160a01b038086166004830152602482018490528216604482015260640161091b565b600680546001600160a01b038381166001600160a01b0319831681179093556040519116919082907f8be0079c531659141344cd1fd0a4f28419497f9722a3daafe3b4186f6b6457e090600090a35050565b6000611eb96000836000611b2f565b90506001600160a01b0381166108b357604051637e27328960e01b81526004810183905260240161091b565b6001600160a01b038216611f1757604051630b61174360e31b81526001600160a01b038316600482015260240161091b565b6001600160a01b03838116600081815260056020908152604080832094871680845294825291829020805460ff191686151590811790915591519182527f17307eab39ab6107e8899845ad3d59bd9653f200f220920489ca2b5937696c31910160405180910390a3505050565b6001600160a01b0383163b156120a857604051630a85bd0160e11b81526001600160a01b0384169063150b7a0290611fc6908890889087908790600401612cb3565b6020604051808303816000875af1925050508015612001575060408051601f3d908101601f19168201909252611ffe91810190612ce6565b60015b61206a573d80801561202f576040519150601f19603f3d011682016040523d82523d6000602084013e612034565b606091505b50805160000361206257604051633250574960e11b81526001600160a01b038516600482015260240161091b565b805181602001fd5b6001600160e01b03198116630a85bd0160e11b146120a657604051633250574960e11b81526001600160a01b038516600482015260240161091b565b505b5050505050565b606060006120bc8361244d565b600101905060008167ffffffffffffffff8111156120dc576120dc61276a565b6040519080825280601f01601f191660200182016040528015612106576020820181803683370190505b5090508181016020015b600019016f181899199a1a9b1b9c1cb0b131b232b360811b600a86061a8153600a850494508461211057509392505050565b60015b600f548110156119bd57600081815260116020526040902060010154600160a01b900460ff161561229157600081815260116020818152604080842060010180546012845291909420549290915260ff60a01b1981169092556001600160a01b03909116906121b383611eaa565b801561228e576000826001600160a01b03168260405160006040518083038185875af1925050503d8060008114612206576040519150601f19603f3d011682016040523d82523d6000602084013e61220b565b606091505b50509050801561225e57826001600160a01b0316847f8c8fd3da31954f4657d981e2a89ea3421ef5d7bfa0998012eaff5f24a61a867a8460405161225191815260200190565b60405180910390a361228c565b6001600160a01b03831660009081526013602052604081208054849290612286908490612b03565b90915550505b505b50505b600081815260116020526040902060010154600160a01b900460ff166122ba576122ba81611eaa565b600101612145565b80806122d657506001600160a01b03821615155b156123985760006122e684611ad0565b90506001600160a01b038316158015906123125750826001600160a01b0316816001600160a01b031614155b801561232557506123238184611954565b155b1561234e5760405163a9fbf51f60e01b81526001600160a01b038416600482015260240161091b565b81156123965783856001600160a01b0316826001600160a01b03167f8c5be1e5ebec7d5bd14f71427d1e84f3dd0314c0f7b2291e5b200ac8c7c3b92560405160405180910390a45b505b5050600090815260046020526040902080546001600160a01b0319166001600160a01b0392909216919091179055565b6123d3838383612525565b61112c576001600160a01b03831661240157604051637e27328960e01b81526004810182905260240161091b565b60405163177e802f60e01b81526001600160a01b03831660048201526024810182905260440161091b565b6119bd8161258b565b61243f83836125ac565b61112c336000858585611f84565b60008072184f03e93ff9f4daa797ed6e38ed64bf6a1f0160401b831061248c5772184f03e93ff9f4daa797ed6e38ed64bf6a1f0160401b830492506040015b6d04ee2d6d415b85acef810000000083106124b8576d04ee2d6d415b85acef8100000000830492506020015b662386f26fc1000083106124d657662386f26fc10000830492506010015b6305f5e10083106124ee576305f5e100830492506008015b612710831061250257612710830492506004015b60648310612514576064830492506002015b600a83106107e75760010192915050565b60006001600160a01b038316158015906125835750826001600160a01b0316846001600160a01b0316148061255f575061255f8484611954565b8061258357506000828152600460205260409020546001600160a01b038481169116145b949350505050565b60006a636f6e736f6c652e6c6f679050600080835160208501845afa505050565b6001600160a01b0382166125d657604051633250574960e11b81526000600482015260240161091b565b60006125e483836000611b2f565b90506001600160a01b0381161561112c576040516339e3563760e11b81526000600482015260240161091b565b6001600160e01b0319811681146119bd57600080fd5b60006020828403121561263957600080fd5b81356117d581612611565b60005b8381101561265f578181015183820152602001612647565b50506000910152565b60008151808452612680816020860160208601612644565b601f01601f19169290920160200192915050565b6020815260006117d56020830184612668565b6000602082840312156126b957600080fd5b5035919050565b80356001600160a01b0381168114611d8957600080fd5b600080604083850312156126ea57600080fd5b6126f3836126c0565b946020939093013593505050565b60008060006060848603121561271657600080fd5b61271f846126c0565b925061272d602085016126c0565b929592945050506040919091013590565b6000806040838503121561275157600080fd5b82359150612761602084016126c0565b90509250929050565b634e487b7160e01b600052604160045260246000fd5b604051601f8201601f1916810167ffffffffffffffff811182821017156127a9576127a961276a565b604052919050565b600082601f8301126127c257600080fd5b813567ffffffffffffffff8111156127dc576127dc61276a565b8060051b6127ec60208201612780565b9182526020818501810192908101908684111561280857600080fd5b6020860192505b838310156108eb57823582526020928301929091019061280f565b6000806040838503121561283d57600080fd5b823567ffffffffffffffff81111561285457600080fd5b612860858286016127b1565b925050612761602084016126c0565b60006020828403121561288157600080fd5b6117d5826126c0565b60006020828403121561289c57600080fd5b813567ffffffffffffffff8111156128b357600080fd5b612583848285016127b1565b602080825282518282018190526000918401906040840190835b818110156128f75783518352602093840193909201916001016128d9565b509095945050505050565b6000806040838503121561291557600080fd5b61291e836126c0565b91506020830135801515811461293357600080fd5b809150509250929050565b6000806000806080858703121561295457600080fd5b61295d856126c0565b935061296b602086016126c0565b925060408501359150606085013567ffffffffffffffff81111561298e57600080fd5b8501601f8101871361299f57600080fd5b803567ffffffffffffffff8111156129b9576129b961276a565b6129cc601f8201601f1916602001612780565b8181528860208385010111156129e157600080fd5b8160208401602083013760006020838301015280935050505092959194509250565b89815261012060208201526000612a1e61012083018b612668565b8281036040840152612a30818b612668565b60608401999099525050608081019590955260a08501939093526001600160a01b039190911660c0840152151560e08301521515610100909101529392505050565b60008060408385031215612a8557600080fd5b612a8e836126c0565b9150612761602084016126c0565b600181811c90821680612ab057607f821691505b602082108103612ad057634e487b7160e01b600052602260045260246000fd5b50919050565b634e487b7160e01b600052601160045260246000fd5b80820281158282048414176107e7576107e7612ad6565b808201808211156107e7576107e7612ad6565b600082612b3357634e487b7160e01b600052601260045260246000fd5b500490565b60208082526013908201527222bb32b73a1034b99031b0b731b2b63632b21760691b604082015260600190565b818103818111156107e7576107e7612ad6565b600060018201612b8a57612b8a612ad6565b5060010190565b634e487b7160e01b600052603260045260246000fd5b6020808252602f908201527f446f6172206f7267616e697a61746f72756c20706f617465206170656c61206160408201526e31b2b0b9ba3090333ab731ba34b29760891b606082015260800190565b60008351612c08818460208801612644565b835190830190612c1c818360208801612644565b01949350505050565b604081526000612c386040830185612668565b90508260208301529392505050565b805169ffffffffffffffffffff81168114611d8957600080fd5b600080600080600060a08688031215612c7957600080fd5b612c8286612c47565b60208701516040880151606089015192975090955093509150612ca760808701612c47565b90509295509295909350565b6001600160a01b03858116825284166020820152604081018390526080606082018190526000906108eb90830184612668565b600060208284031215612cf857600080fd5b81516117d58161261156fea2646970667358221220e94422c8696ea47d286d9f18ba69382b398736a70dd51ad6012fd2e36b0f73bc64736f6c634300081b0033a2646970667358221220318fc150e0d8b09195495d8b765428bb704604083d37bf1fc714783dddc833b464736f6c634300081b0033",
  "linkReferences": {},
  "deployedLinkReferences": {}
}