{
  "_format": "hh-sol-artifact-1",
  "contractName": "TicketingPlatform",
  "sourceName": "contracts/TicketingPlatform.sol",
  "abi": [
    {
      "inputs": [
        {
          "internalType": "address",
          "name": "_priceFeedAddress",
          "type": "address"
        }
      ],
      "stateMutability": "nonpayable",
      "type": "constructor"
    },
    {
      "anonymous": false,
      "inputs": [
        {
          "indexed": true,
          "internalType": "uint256",
          "name": "eventId",
          "type": "uint256"
        },
        {
          "indexed": true,
          "internalType": "address",
          "name": "eventAddress",
          "type": "address"
        },
        {
          "indexed": true,
          "internalType": "address",
          "name": "organizer",
          "type": "address"
        }
      ],
      "name": "EventCreated",
      "type": "event"
    },
    {
      "inputs": [
        {
          "internalType": "string",
          "name": "_eventName",
          "type": "string"
        },
        {
          "internalType": "string",
          "name": "_eventLocation",
          "type": "string"
        },
        {
          "internalType": "uint256",
          "name": "_eventDate",
          "type": "uint256"
        },
        {
          "internalType": "uint256",
          "name": "_ticketPriceUSD",
          "type": "uint256"
        },
        {
          "internalType": "uint256",
          "name": "_ticketsAvailable",
          "type": "uint256"
        }
      ],
      "name": "createEvent",
      "outputs": [],
      "stateMutability": "nonpayable",
      "type": "function"
    },
    {
      "inputs": [
        {
          "internalType": "uint256",
          "name": "",
          "type": "uint256"
        }
      ],
      "name": "events",
      "outputs": [
        {
          "internalType": "address",
          "name": "",
          "type": "address"
        }
      ],
      "stateMutability": "view",
      "type": "function"
    },
    {
      "inputs": [
        {
          "internalType": "uint256",
          "name": "_eventId",
          "type": "uint256"
        }
      ],
      "name": "getEventAddress",
      "outputs": [
        {
          "internalType": "address",
          "name": "",
          "type": "address"
        }
      ],
      "stateMutability": "view",
      "type": "function"
    },
    {
      "inputs": [],
      "name": "nextEventId",
      "outputs": [
        {
          "internalType": "uint256",
          "name": "",
          "type": "uint256"
        }
      ],
      "stateMutability": "view",
      "type": "function"
    },
    {
      "inputs": [],
      "name": "priceFeedAddress",
      "outputs": [
        {
          "internalType": "address",
          "name": "",
          "type": "address"
        }
      ],
      "stateMutability": "view",
      "type": "function"
    }
  ],
  "bytecode": "0x6080604052348015600f57600080fd5b50604051613aec380380613aec833981016040819052602c916050565b600280546001600160a01b0319166001600160a01b0392909216919091179055607e565b600060208284031215606157600080fd5b81516001600160a01b0381168114607757600080fd5b9392505050565b613a5f8061008d6000396000f3fe608060405234801561001057600080fd5b50600436106100575760003560e01c80630b7914301461005c5780631c25f16e146100a25780633c2fc56c146100cb5780639f9d903a146100e0578063e0abca0b146100f7575b600080fd5b61008561006a3660046102ac565b6001602052600090815260409020546001600160a01b031681565b6040516001600160a01b0390911681526020015b60405180910390f35b6100856100b03660046102ac565b6000908152600160205260409020546001600160a01b031690565b6100de6100d936600461036a565b61010a565b005b6100e960005481565b604051908152602001610099565b600254610085906001600160a01b031681565b4283116101685760405162461bcd60e51b815260206004820152602160248201527f4576656e742064617465206d75737420626520696e20746865206675747572656044820152601760f91b60648201526084015b60405180910390fd5b600081116101cd5760405162461bcd60e51b815260206004820152602c60248201527f5468657265206d757374206265206174206c65617374206f6e65207469636b6560448201526b3a1030bb30b4b630b136329760a11b606482015260840161015f565b60008054868686868633600260009054906101000a90046001600160a01b0316336040516101fa9061029f565b61020c99989796959493929190610434565b604051809103906000f080158015610228573d6000803e3d6000fd5b506000805481526001602052604080822080546001600160a01b0319166001600160a01b03851690811790915582549151939450339390927fbc30926aa39d11d8e1c5c4cef558355357f816a6cd38de3bfb11f4f5cfc2691b91a4600080549080610292836104a1565b9190505550505050505050565b613561806104c983390190565b6000602082840312156102be57600080fd5b5035919050565b634e487b7160e01b600052604160045260246000fd5b600082601f8301126102ec57600080fd5b813567ffffffffffffffff811115610306576103066102c5565b604051601f8201601f19908116603f0116810167ffffffffffffffff81118282101715610335576103356102c5565b60405281815283820160200185101561034d57600080fd5b816020850160208301376000918101602001919091529392505050565b600080600080600060a0868803121561038257600080fd5b853567ffffffffffffffff81111561039957600080fd5b6103a5888289016102db565b955050602086013567ffffffffffffffff8111156103c257600080fd5b6103ce888289016102db565b959895975050505060408401359360608101359360809091013592509050565b6000815180845260005b81811015610414576020818501810151868301820152016103f8565b506000602082860101526020601f19601f83011685010191505092915050565b8981526101206020820152600061044f61012083018b6103ee565b8281036040840152610461818b6103ee565b60608401999099525050608081019590955260a08501939093526001600160a01b0391821660c0850152811660e084015216610100909101529392505050565b6000600182016104c157634e487b7160e01b600052601160045260246000fd5b506001019056fe608060405234801561001057600080fd5b5060405161356138038061356183398101604081905261002f916102d8565b6040805180820190915260038152621512d560ea1b60208201523390899060006100598382610429565b5060016100668282610429565b5050506001600160a01b03811661009857604051631e4fbdf760e01b8152600060048201526024015b60405180910390fd5b6100a18161013b565b506001600755600889905560096100b88982610429565b50600a6100c58882610429565b50600b869055600c859055600d849055600e80546001600160a01b038086166001600160a01b0319928316179092556001600f5560108054848416610100026001600160b01b0319909116179055601380549285169290911691909117905561012d8361018d565b5050505050505050506104e7565b600680546001600160a01b038381166001600160a01b0319831681179093556040519116919082907f8be0079c531659141344cd1fd0a4f28419497f9722a3daafe3b4186f6b6457e090600090a35050565b6101956101cb565b6001600160a01b0381166101bf57604051631e4fbdf760e01b81526000600482015260240161008f565b6101c88161013b565b50565b6006546001600160a01b031633146101f85760405163118cdaa760e01b815233600482015260240161008f565b565b634e487b7160e01b600052604160045260246000fd5b600082601f83011261022157600080fd5b81516001600160401b0381111561023a5761023a6101fa565b604051601f8201601f19908116603f011681016001600160401b0381118282101715610268576102686101fa565b60405281815283820160200185101561028057600080fd5b60005b8281101561029f57602081860181015183830182015201610283565b506000918101602001919091529392505050565b6001600160a01b03811681146101c857600080fd5b80516102d3816102b3565b919050565b60008060008060008060008060006101208a8c0312156102f757600080fd5b895160208b01519099506001600160401b0381111561031557600080fd5b6103218c828d01610210565b60408c015190995090506001600160401b0381111561033f57600080fd5b61034b8c828d01610210565b60608c015160808d015160a08e015160c08f0151939b50919950975095509050610374816102b3565b925061038260e08b016102c8565b91506103916101008b016102c8565b90509295985092959850929598565b600181811c908216806103b457607f821691505b6020821081036103d457634e487b7160e01b600052602260045260246000fd5b50919050565b601f82111561042457806000526020600020601f840160051c810160208510156104015750805b601f840160051c820191505b81811015610421576000815560010161040d565b50505b505050565b81516001600160401b03811115610442576104426101fa565b6104568161045084546103a0565b846103da565b6020601f82116001811461048a57600083156104725750848201515b600019600385901b1c1916600184901b178455610421565b600084815260208120601f198516915b828110156104ba578785015182556020948501946001909201910161049a565b50848210156104d85786840151600019600387901b60f8161c191681555b50505050600190811b01905550565b61306b806104f66000396000f3fe6080604052600436106102515760003560e01c80636352211e1161013957806395ee1221116100b6578063c87b56dd1161007a578063c87b56dd1461075f578063cd86efc21461077f578063e2bb3ccf146107ac578063e985e9c5146107d6578063f2fde38b146107f6578063fb6c95371461081657600080fd5b806395ee1221146106c4578063a22cb465146106de578063ac307fcf146106fe578063b88d4fde1461071f578063c7ddab361461073f57600080fd5b8063720764b1116100fd578063720764b11461062f5780638043c9c01461064f57806385fd52f0146106645780638da5cb5b1461069157806395d89b41146106af57600080fd5b80636352211e1461059a578063679ebf1a146105ba57806368456b1c146105da57806370a08231146105fa578063715018a61461061a57600080fd5b806324c14160116101d25780634bde38c8116101965780634bde38c8146104b65780634bfbe5df146104db57806350b44712146104f15780635b7baf64146105445780636031a52f14610564578063612032651461057a57600080fd5b806324c14160146103ac5780632a6ca755146104595780632b74e9841461046e5780632f3666371461048357806342842e0e1461049657600080fd5b80631030c51e116102195780631030c51e1461032b57806318253234146103415780631d6283361461035757806323b872dd1461037757806324600fc31461039757600080fd5b806301ffc9a71461025657806306fdde031461028b578063081812fc146102ad578063089cdd0c146102e5578063095ea7b314610309575b600080fd5b34801561026257600080fd5b50610276610271366004612959565b61082b565b60405190151581526020015b60405180910390f35b34801561029757600080fd5b506102a061087d565b60405161028291906129c6565b3480156102b957600080fd5b506102cd6102c83660046129d9565b61090f565b6040516001600160a01b039091168152602001610282565b3480156102f157600080fd5b506102fb60085481565b604051908152602001610282565b34801561031557600080fd5b50610329610324366004612a09565b610938565b005b34801561033757600080fd5b506102fb600c5481565b34801561034d57600080fd5b506102fb600d5481565b34801561036357600080fd5b506102fb6103723660046129d9565b610947565b34801561038357600080fd5b50610329610392366004612a33565b610985565b3480156103a357600080fd5b50610329610a15565b3480156103b857600080fd5b506104296103c73660046129d9565b600090815260116020908152604091829020825160808101845281548082526001909201546001600160a01b03811693820184905260ff600160a01b820481161515958301869052600160a81b90910416151560609091018190529093919291565b604080519485526001600160a01b0390931660208501529015159183019190915215156060820152608001610282565b34801561046557600080fd5b506102a0610c61565b34801561047a57600080fd5b506102fb610cef565b6103296104913660046129d9565b610da6565b3480156104a257600080fd5b506103296104b1366004612a33565b6111c3565b3480156104c257600080fd5b506010546102cd9061010090046001600160a01b031681565b3480156104e757600080fd5b506102fb600b5481565b3480156104fd57600080fd5b5061042961050c3660046129d9565b601160205260009081526040902080546001909101546001600160a01b0381169060ff600160a01b8204811691600160a81b90041684565b34801561055057600080fd5b5061032961055f3660046129d9565b6111e3565b34801561057057600080fd5b506102fb600f5481565b34801561058657600080fd5b50600e546102cd906001600160a01b031681565b3480156105a657600080fd5b506102cd6105b53660046129d9565b611487565b3480156105c657600080fd5b506103296105d5366004612a70565b611492565b3480156105e657600080fd5b506103296105f5366004612b5c565b6115e4565b34801561060657600080fd5b506102fb610615366004612ba1565b6116e5565b34801561062657600080fd5b5061032961172d565b34801561063b57600080fd5b5061032961064a366004612bbc565b61173f565b34801561065b57600080fd5b506102a061191e565b34801561067057600080fd5b5061068461067f366004612ba1565b61192b565b6040516102829190612bf1565b34801561069d57600080fd5b506006546001600160a01b03166102cd565b3480156106bb57600080fd5b506102a0611ab6565b3480156106d057600080fd5b506010546102769060ff1681565b3480156106ea57600080fd5b506103296106f9366004612c34565b611ac5565b34801561070a57600080fd5b5060105461027690600160a81b900460ff1681565b34801561072b57600080fd5b5061032961073a366004612c70565b611ad0565b34801561074b57600080fd5b5061032961075a3660046129d9565b611ae8565b34801561076b57600080fd5b506102a061077a3660046129d9565b611bc9565b34801561078b57600080fd5b506102fb61079a3660046129d9565b60126020526000908152604090205481565b3480156107b857600080fd5b506107c1611c3e565b60405161028299989796959493929190612d35565b3480156107e257600080fd5b506102766107f1366004612da4565b611db6565b34801561080257600080fd5b50610329610811366004612ba1565b611de4565b34801561082257600080fd5b50610329611e1f565b60006001600160e01b031982166380ac58cd60e01b148061085c57506001600160e01b03198216635b5e139f60e01b145b8061087757506301ffc9a760e01b6001600160e01b03198316145b92915050565b60606000805461088c90612dce565b80601f01602080910402602001604051908101604052809291908181526020018280546108b890612dce565b80156109055780601f106108da57610100808354040283529160200191610905565b820191906000526020600020905b8154815290600101906020018083116108e857829003601f168201915b5050505050905090565b600061091a82611f82565b506000828152600460205260409020546001600160a01b0316610877565b610943828233611fbb565b5050565b600080610952610cef565b905060006109608483612e1e565b9050600061096d82611fc8565b9050600061097b8284612e35565b9695505050505050565b6001600160a01b0382166109b457604051633250574960e11b8152600060048201526024015b60405180910390fd5b60006109c1838333611fe1565b9050836001600160a01b0316816001600160a01b031614610a0f576040516364283d7b60e01b81526001600160a01b03808616600483015260248201849052821660448201526064016109ab565b50505050565b610a1d6120da565b610a25612107565b60105460ff1615610a915760405162461bcd60e51b815260206004820152603060248201527f43616e6e6f742077697468647261772066756e6473206966207468652065766560448201526f373a1034b99031b0b731b2b63632b21760811b60648201526084016109ab565b600b544211610af75760405162461bcd60e51b815260206004820152602c60248201527f43616e6e6f742077697468647261772066756e6473206265666f72652074686560448201526b1032bb32b73a103230ba329760a11b60648201526084016109ab565b4780610b3d5760405162461bcd60e51b8152602060048201526015602482015274273790333ab73239903a37903bb4ba34323930bb9760591b60448201526064016109ab565b604051600090339083908381818185875af1925050503d8060008114610b7f576040519150601f19603f3d011682016040523d82523d6000602084013e610b84565b606091505b505090508015610c1157610bc36040518060400160405280601381526020017246756e64732077697468647261776e3a20257360681b81525083612131565b6010805460ff60a81b1916600160a81b1790556040517f4a37b25aab49761ecf63117fe82b98d750917451133cf797507bc9fb5b96044a90610c089084815260200190565b60405180910390a15b80610c535760405162461bcd60e51b81526020600482015260126024820152712bb4ba34323930bbb0b6103330b4b632b21760711b60448201526064016109ab565b5050610c5f6001600755565b565b600a8054610c6e90612dce565b80601f0160208091040260200160405190810160405280929190818152602001828054610c9a90612dce565b8015610ce75780601f10610cbc57610100808354040283529160200191610ce7565b820191906000526020600020905b815481529060010190602001808311610cca57829003601f168201915b505050505081565b600080610cfa612176565b905060008111610d4c5760405162461bcd60e51b815260206004820152601960248201527f50726574756c20455448206e7520657374652076616c69642e0000000000000060448201526064016109ab565b600081600c546a52b7d2dcc80cd2e4000000610d689190612e1e565b610d729190612e48565b90506108776040518060400160405280601081526020016f507269636520696e205765693a20257360801b81525082612131565b60105460ff1615610dc95760405162461bcd60e51b81526004016109ab90612e6a565b60008111610e195760405162461bcd60e51b815260206004820152601d60248201527f4d75737420627579206174206c65617374206f6e65207469636b65742e00000060448201526064016109ab565b80600d541015610e6b5760405162461bcd60e51b815260206004820152601d60248201527f4e6f7420656e6f756768207469636b65747320617661696c61626c652e00000060448201526064016109ab565b600b544210610ece5760405162461bcd60e51b815260206004820152602960248201527f43616e6e6f74207075726368617365207469636b65747320616674657220657660448201526832b73a103230ba329760b91b60648201526084016109ab565b6000610ed8610cef565b90506000610ee68383612e1e565b90506000610ef382611fc8565b90506000610f018284612e35565b905080341015610f635760405162461bcd60e51b815260206004820152602760248201527f496e73756666696369656e742066756e647320746f207075726368617365207460448201526634b1b5b2ba399760c91b60648201526084016109ab565b84600d6000828254610f759190612e97565b909155505060105460405160009161010090046001600160a01b03169084908381818185875af1925050503d8060008114610fcc576040519150601f19603f3d011682016040523d82523d6000602084013e610fd1565b606091505b50509050806110225760405162461bcd60e51b815260206004820152601c60248201527f5365727669636520666565207472616e73666572206661696c65642e0000000060448201526064016109ab565b60005b8681101561110b57600f5461103a3382612240565b60408051608081018252828152336020808301828152600184860181815260006060870181815289825260118652888220975188559351969092018054915193511515600160a81b0260ff60a81b19941515600160a01b026001600160a81b03199093166001600160a01b0398909816979097179190911792909216949094179055601290528282208a9055915183917f785f2865353ae960010300f584fc6c577b757a853af69a99c769df3c8232d3de91a3600f80549060006110fd83612eaa565b909155505050600101611025565b5060006111188334612e97565b905080156111ba57604051600090339083908381818185875af1925050503d8060008114611162576040519150601f19603f3d011682016040523d82523d6000602084013e611167565b606091505b50509050806111b85760405162461bcd60e51b815260206004820181905260248201527f526566756e64206f6620657863657373207061796d656e74206661696c65642e60448201526064016109ab565b505b50505050505050565b6111de83838360405180602001604052806000815250611ad0565b505050565b6111eb612107565b60105460ff1661123d5760405162461bcd60e51b815260206004820152601760248201527f4576656e74206973206e6f742063616e63656c6c65642e00000000000000000060448201526064016109ab565b6000818152601160205260409020600101546001600160a01b031633146112a65760405162461bcd60e51b815260206004820152601b60248201527f596f7520646f206e6f74206f776e2074686973207469636b65742e000000000060448201526064016109ab565b600081815260116020526040902060010154600160a81b900460ff166113275760405162461bcd60e51b815260206004820152603060248201527f526566756e6420616c726561647920636c61696d6564206f72207469636b657460448201526f103737ba103932b33ab73230b136329760811b60648201526084016109ab565b600081815260126020526040902054806113835760405162461bcd60e51b815260206004820152601b60248201527f4e6f20726566756e6420616d6f756e7420617661696c61626c652e000000000060448201526064016109ab565b6000828152601160205260409020600101805461ffff60a01b191690556113a98261225a565b604051600090339083908381818185875af1925050503d80600081146113eb576040519150601f19603f3d011682016040523d82523d6000602084013e6113f0565b606091505b50509050806114415760405162461bcd60e51b815260206004820152601760248201527f526566756e64207472616e73666572206661696c65642e00000000000000000060448201526064016109ab565b604051828152339084907f8c8fd3da31954f4657d981e2a89ea3421ef5d7bfa0998012eaff5f24a61a867a9060200160405180910390a350506114846001600755565b50565b600061087782611f82565b60105460ff16156114b55760405162461bcd60e51b81526004016109ab90612e6a565b336114bf83611487565b6001600160a01b0316146115155760405162461bcd60e51b815260206004820152601b60248201527f596f7520646f206e6f74206f776e2074686973207469636b65742e000000000060448201526064016109ab565b600b54421061157c5760405162461bcd60e51b815260206004820152602d60248201527f43616e6e6f74207472616e73666572207469636b65747320616674657220746860448201526c329032bb32b73a103230ba329760991b60648201526084016109ab565b611587338284612295565b60008281526011602052604080822060010180546001600160a01b0319166001600160a01b03851690811790915590519091339185917fd15524263ae66f75c1e604c47db6085085110f23ef7322b355179ac5e3b0783a91a45050565b60105460ff16156116075760405162461bcd60e51b81526004016109ab90612e6a565b60005b82518110156111de57600083828151811061162757611627612ec3565b60200260200101519050336001600160a01b031661164482611487565b6001600160a01b03161480156116725750600081815260116020526040902060010154600160a01b900460ff165b156116dc57611682338483612295565b60008181526011602052604080822060010180546001600160a01b0319166001600160a01b03871690811790915590519091339184917fd15524263ae66f75c1e604c47db6085085110f23ef7322b355179ac5e3b0783a91a45b5060010161160a565b60006001600160a01b038216611711576040516322718ad960e21b8152600060048201526024016109ab565b506001600160a01b031660009081526003602052604090205490565b6117356120da565b610c5f6000612345565b600e546001600160a01b031633146117695760405162461bcd60e51b81526004016109ab90612ed9565b60005b815181101561094357600b5461178490610708612e35565b42106117f85760405162461bcd60e51b815260206004820152603c60248201527f43616e6e6f7420696e76616c6964617465207469636b6574732061667465722060448201527f3330206d696e75746573206166746572206576656e7420646174652e0000000060648201526084016109ab565b6011600083838151811061180e5761180e612ec3565b6020026020010151815260200190815260200160002060010160149054906101000a900460ff166118815760405162461bcd60e51b815260206004820152601a60248201527f5469636b657420697320616c726561647920696e76616c69642e00000000000060448201526064016109ab565b600082828151811061189557611895612ec3565b602002602001015190506011600082815260200190815260200160002060010160149054906101000a900460ff1615611915576118d18161225a565b600081815260116020526040808220600101805460ff60a01b191690555182917f3d2e2c688a4e959f9f49fbb4703914231831fde152a68a8a1218418833249d7c91a25b5060010161176c565b60098054610c6e90612dce565b606060006001600f5461193e9190612e97565b905060008167ffffffffffffffff81111561195b5761195b612a9c565b604051908082528060200260200182016040528015611984578160200160208202803683370190505b509050600060015b838111611a1a57600081815260116020526040902060010154600160a01b900460ff1680156119d757506000818152601160205260409020600101546001600160a01b038781169116145b15611a0857808383815181106119ef576119ef612ec3565b602090810291909101015281611a0481612eaa565b9250505b80611a1281612eaa565b91505061198c565b5060008167ffffffffffffffff811115611a3657611a36612a9c565b604051908082528060200260200182016040528015611a5f578160200160208202803683370190505b50905060005b82811015611aac57838181518110611a7f57611a7f612ec3565b6020026020010151828281518110611a9957611a99612ec3565b6020908102919091010152600101611a65565b5095945050505050565b60606001805461088c90612dce565b610943338383612397565b611adb848484610985565b610a0f3385858585612436565b600e546001600160a01b03163314611b125760405162461bcd60e51b81526004016109ab90612ed9565b600081815260116020526040902060010154600160a01b900460ff16611b7a5760405162461bcd60e51b815260206004820152601a60248201527f5469636b657420697320616c726561647920696e76616c69642e00000000000060448201526064016109ab565b611b838161225a565b600081815260116020526040808220600101805460ff60a01b191690555182917f3d2e2c688a4e959f9f49fbb4703914231831fde152a68a8a1218418833249d7c91a250565b6060611bd482611f82565b506000611bec60408051602081019091526000815290565b90506000815111611c0c5760405180602001604052806000815250611c37565b80611c1684612561565b604051602001611c27929190612f28565b6040516020818303038152906040525b9392505050565b60006060806000806000806000806008546009600a600b54600c54600d54611c6e6006546001600160a01b031690565b601054865460ff80831692600160a81b900416908890611c8d90612dce565b80601f0160208091040260200160405190810160405280929190818152602001828054611cb990612dce565b8015611d065780601f10611cdb57610100808354040283529160200191611d06565b820191906000526020600020905b815481529060010190602001808311611ce957829003601f168201915b50505050509750868054611d1990612dce565b80601f0160208091040260200160405190810160405280929190818152602001828054611d4590612dce565b8015611d925780601f10611d6757610100808354040283529160200191611d92565b820191906000526020600020905b815481529060010190602001808311611d7557829003601f168201915b50505050509650985098509850985098509850985098509850909192939495969798565b6001600160a01b03918216600090815260056020908152604080832093909416825291909152205460ff1690565b611dec6120da565b6001600160a01b038116611e1657604051631e4fbdf760e01b8152600060048201526024016109ab565b61148481612345565b611e276120da565b611e2f612107565b60105460ff1615611e825760405162461bcd60e51b815260206004820152601b60248201527f4576656e7420697320616c72656164792063616e63656c6c65642e000000000060448201526064016109ab565b601054600160a81b900460ff1615611ee75760405162461bcd60e51b815260206004820152602260248201527f46756e6473206861766520616c7265616479206265656e207769746864726177604482015261371760f11b60648201526084016109ab565b6010805460ff191660019081179091555b600f54811015611f4e57600081815260116020526040902060010154600160a01b900460ff1615611f46576000818152601160205260409020600101805460ff60a81b1916600160a81b1790555b600101611ef8565b506040517fc423524f667a9459893f10159c8a95981a43fb77edd414f6325d8439604ad41890600090a1610c5f6001600755565b6000818152600260205260408120546001600160a01b03168061087757604051637e27328960e01b8152600481018490526024016109ab565b6111de83838360016125f4565b60006064611fd7836002612e1e565b6108779190612e48565b6000828152600260205260408120546001600160a01b039081169083161561200e5761200e8184866126fa565b6001600160a01b0381161561204c5761202b6000856000806125f4565b6001600160a01b038116600090815260036020526040902080546000190190555b6001600160a01b0385161561207b576001600160a01b0385166000908152600360205260409020805460010190555b60008481526002602052604080822080546001600160a01b0319166001600160a01b0389811691821790925591518793918516917fddf252ad1be2c89b69c2b068fc378daa952ba7f163c4a11628f55a4df523b3ef91a4949350505050565b6006546001600160a01b03163314610c5f5760405163118cdaa760e01b81523360048201526024016109ab565b60026007540361212a57604051633ee5aeb560e01b815260040160405180910390fd5b6002600755565b6109438282604051602401612147929190612f57565b60408051601f198184030181529190526020810180516001600160e01b0316632d839cb360e21b17905261275e565b600080601360009054906101000a90046001600160a01b03166001600160a01b031663feaf968c6040518163ffffffff1660e01b815260040160a060405180830381865afa1580156121cc573d6000803e3d6000fd5b505050506040513d601f19601f820116820180604052508101906121f09190612f93565b5050509150506000811361223b5760405162461bcd60e51b815260206004820152601260248201527124b73b30b634b21022aa2410383934b1b29760711b60448201526064016109ab565b919050565b610943828260405180602001604052806000815250612767565b60006122696000836000611fe1565b90506001600160a01b03811661094357604051637e27328960e01b8152600481018390526024016109ab565b6001600160a01b0382166122bf57604051633250574960e11b8152600060048201526024016109ab565b60006122cd83836000611fe1565b90506001600160a01b0381166122f957604051637e27328960e01b8152600481018390526024016109ab565b836001600160a01b0316816001600160a01b031614610a0f576040516364283d7b60e01b81526001600160a01b03808616600483015260248201849052821660448201526064016109ab565b600680546001600160a01b038381166001600160a01b0319831681179093556040519116919082907f8be0079c531659141344cd1fd0a4f28419497f9722a3daafe3b4186f6b6457e090600090a35050565b6001600160a01b0382166123c957604051630b61174360e31b81526001600160a01b03831660048201526024016109ab565b6001600160a01b03838116600081815260056020908152604080832094871680845294825291829020805460ff191686151590811790915591519182527f17307eab39ab6107e8899845ad3d59bd9653f200f220920489ca2b5937696c31910160405180910390a3505050565b6001600160a01b0383163b1561255a57604051630a85bd0160e11b81526001600160a01b0384169063150b7a0290612478908890889087908790600401612fe5565b6020604051808303816000875af19250505080156124b3575060408051601f3d908101601f191682019092526124b091810190613018565b60015b61251c573d8080156124e1576040519150601f19603f3d011682016040523d82523d6000602084013e6124e6565b606091505b50805160000361251457604051633250574960e11b81526001600160a01b03851660048201526024016109ab565b805181602001fd5b6001600160e01b03198116630a85bd0160e11b1461255857604051633250574960e11b81526001600160a01b03851660048201526024016109ab565b505b5050505050565b6060600061256e8361277f565b600101905060008167ffffffffffffffff81111561258e5761258e612a9c565b6040519080825280601f01601f1916602001820160405280156125b8576020820181803683370190505b5090508181016020015b600019016f181899199a1a9b1b9c1cb0b131b232b360811b600a86061a8153600a85049450846125c257509392505050565b808061260857506001600160a01b03821615155b156126ca57600061261884611f82565b90506001600160a01b038316158015906126445750826001600160a01b0316816001600160a01b031614155b801561265757506126558184611db6565b155b156126805760405163a9fbf51f60e01b81526001600160a01b03841660048201526024016109ab565b81156126c85783856001600160a01b0316826001600160a01b03167f8c5be1e5ebec7d5bd14f71427d1e84f3dd0314c0f7b2291e5b200ac8c7c3b92560405160405180910390a45b505b5050600090815260046020526040902080546001600160a01b0319166001600160a01b0392909216919091179055565b612705838383612857565b6111de576001600160a01b03831661273357604051637e27328960e01b8152600481018290526024016109ab565b60405163177e802f60e01b81526001600160a01b0383166004820152602481018290526044016109ab565b611484816128bd565b61277183836128de565b6111de336000858585612436565b60008072184f03e93ff9f4daa797ed6e38ed64bf6a1f0160401b83106127be5772184f03e93ff9f4daa797ed6e38ed64bf6a1f0160401b830492506040015b6d04ee2d6d415b85acef810000000083106127ea576d04ee2d6d415b85acef8100000000830492506020015b662386f26fc10000831061280857662386f26fc10000830492506010015b6305f5e1008310612820576305f5e100830492506008015b612710831061283457612710830492506004015b60648310612846576064830492506002015b600a83106108775760010192915050565b60006001600160a01b038316158015906128b55750826001600160a01b0316846001600160a01b0316148061289157506128918484611db6565b806128b557506000828152600460205260409020546001600160a01b038481169116145b949350505050565b60006a636f6e736f6c652e6c6f679050600080835160208501845afa505050565b6001600160a01b03821661290857604051633250574960e11b8152600060048201526024016109ab565b600061291683836000611fe1565b90506001600160a01b038116156111de576040516339e3563760e11b8152600060048201526024016109ab565b6001600160e01b03198116811461148457600080fd5b60006020828403121561296b57600080fd5b8135611c3781612943565b60005b83811015612991578181015183820152602001612979565b50506000910152565b600081518084526129b2816020860160208601612976565b601f01601f19169290920160200192915050565b602081526000611c37602083018461299a565b6000602082840312156129eb57600080fd5b5035919050565b80356001600160a01b038116811461223b57600080fd5b60008060408385031215612a1c57600080fd5b612a25836129f2565b946020939093013593505050565b600080600060608486031215612a4857600080fd5b612a51846129f2565b9250612a5f602085016129f2565b929592945050506040919091013590565b60008060408385031215612a8357600080fd5b82359150612a93602084016129f2565b90509250929050565b634e487b7160e01b600052604160045260246000fd5b604051601f8201601f1916810167ffffffffffffffff81118282101715612adb57612adb612a9c565b604052919050565b600082601f830112612af457600080fd5b813567ffffffffffffffff811115612b0e57612b0e612a9c565b8060051b612b1e60208201612ab2565b91825260208185018101929081019086841115612b3a57600080fd5b6020860192505b8383101561097b578235825260209283019290910190612b41565b60008060408385031215612b6f57600080fd5b823567ffffffffffffffff811115612b8657600080fd5b612b9285828601612ae3565b925050612a93602084016129f2565b600060208284031215612bb357600080fd5b611c37826129f2565b600060208284031215612bce57600080fd5b813567ffffffffffffffff811115612be557600080fd5b6128b584828501612ae3565b602080825282518282018190526000918401906040840190835b81811015612c29578351835260209384019390920191600101612c0b565b509095945050505050565b60008060408385031215612c4757600080fd5b612c50836129f2565b915060208301358015158114612c6557600080fd5b809150509250929050565b60008060008060808587031215612c8657600080fd5b612c8f856129f2565b9350612c9d602086016129f2565b925060408501359150606085013567ffffffffffffffff811115612cc057600080fd5b8501601f81018713612cd157600080fd5b803567ffffffffffffffff811115612ceb57612ceb612a9c565b612cfe601f8201601f1916602001612ab2565b818152886020838501011115612d1357600080fd5b8160208401602083013760006020838301015280935050505092959194509250565b89815261012060208201526000612d5061012083018b61299a565b8281036040840152612d62818b61299a565b60608401999099525050608081019590955260a08501939093526001600160a01b039190911660c0840152151560e08301521515610100909101529392505050565b60008060408385031215612db757600080fd5b612dc0836129f2565b9150612a93602084016129f2565b600181811c90821680612de257607f821691505b602082108103612e0257634e487b7160e01b600052602260045260246000fd5b50919050565b634e487b7160e01b600052601160045260246000fd5b808202811582820484141761087757610877612e08565b8082018082111561087757610877612e08565b600082612e6557634e487b7160e01b600052601260045260246000fd5b500490565b60208082526013908201527222bb32b73a1034b99031b0b731b2b63632b21760691b604082015260600190565b8181038181111561087757610877612e08565b600060018201612ebc57612ebc612e08565b5060010190565b634e487b7160e01b600052603260045260246000fd5b6020808252602f908201527f446f6172206f7267616e697a61746f72756c20706f617465206170656c61206160408201526e31b2b0b9ba3090333ab731ba34b29760891b606082015260800190565b60008351612f3a818460208801612976565b835190830190612f4e818360208801612976565b01949350505050565b604081526000612f6a604083018561299a565b90508260208301529392505050565b805169ffffffffffffffffffff8116811461223b57600080fd5b600080600080600060a08688031215612fab57600080fd5b612fb486612f79565b60208701516040880151606089015192975090955093509150612fd960808701612f79565b90509295509295909350565b6001600160a01b038581168252841660208201526040810183905260806060820181905260009061097b9083018461299a565b60006020828403121561302a57600080fd5b8151611c378161294356fea264697066735822122053e88b894b86ea0055bea7b8eddc11d92d0dde74f85a95e5b717353989e23ca064736f6c634300081b0033a2646970667358221220936a54c3c4afe7cb08d2266ac8d9319221c5f063e87840c0404b6103815486e964736f6c634300081b0033",
  "linkReferences": {},
  "deployedLinkReferences": {}
}